{
  "contractName": "Voting",
  "abi": [
    {
      "constant": true,
      "inputs": [],
      "name": "balanceTokens2",
      "outputs": [
        {
          "name": "",
          "type": "uint256"
        }
      ],
      "payable": false,
      "stateMutability": "view",
      "type": "function"
    },
    {
      "constant": true,
      "inputs": [],
      "name": "tokenPrice3",
      "outputs": [
        {
          "name": "",
          "type": "uint256"
        }
      ],
      "payable": false,
      "stateMutability": "view",
      "type": "function"
    },
    {
      "constant": true,
      "inputs": [],
      "name": "totalTokens4",
      "outputs": [
        {
          "name": "",
          "type": "uint256"
        }
      ],
      "payable": false,
      "stateMutability": "view",
      "type": "function"
    },
    {
      "constant": true,
      "inputs": [],
      "name": "balanceTokens6",
      "outputs": [
        {
          "name": "",
          "type": "uint256"
        }
      ],
      "payable": false,
      "stateMutability": "view",
      "type": "function"
    },
    {
      "constant": true,
      "inputs": [],
      "name": "totalTokens3",
      "outputs": [
        {
          "name": "",
          "type": "uint256"
        }
      ],
      "payable": false,
      "stateMutability": "view",
      "type": "function"
    },
    {
      "constant": true,
      "inputs": [
        {
          "name": "",
          "type": "bytes32"
        }
      ],
      "name": "votesReceived",
      "outputs": [
        {
          "name": "",
          "type": "uint256"
        }
      ],
      "payable": false,
      "stateMutability": "view",
      "type": "function"
    },
    {
      "constant": true,
      "inputs": [],
      "name": "tokenPrice2",
      "outputs": [
        {
          "name": "",
          "type": "uint256"
        }
      ],
      "payable": false,
      "stateMutability": "view",
      "type": "function"
    },
    {
      "constant": true,
      "inputs": [],
      "name": "balanceTokens4",
      "outputs": [
        {
          "name": "",
          "type": "uint256"
        }
      ],
      "payable": false,
      "stateMutability": "view",
      "type": "function"
    },
    {
      "constant": true,
      "inputs": [],
      "name": "totalTokens",
      "outputs": [
        {
          "name": "",
          "type": "uint256"
        }
      ],
      "payable": false,
      "stateMutability": "view",
      "type": "function"
    },
    {
      "constant": true,
      "inputs": [],
      "name": "tokenPrice",
      "outputs": [
        {
          "name": "",
          "type": "uint256"
        }
      ],
      "payable": false,
      "stateMutability": "view",
      "type": "function"
    },
    {
      "constant": true,
      "inputs": [],
      "name": "balanceTokens5",
      "outputs": [
        {
          "name": "",
          "type": "uint256"
        }
      ],
      "payable": false,
      "stateMutability": "view",
      "type": "function"
    },
    {
      "constant": true,
      "inputs": [],
      "name": "totalTokens2",
      "outputs": [
        {
          "name": "",
          "type": "uint256"
        }
      ],
      "payable": false,
      "stateMutability": "view",
      "type": "function"
    },
    {
      "constant": true,
      "inputs": [],
      "name": "tokenPrice7",
      "outputs": [
        {
          "name": "",
          "type": "uint256"
        }
      ],
      "payable": false,
      "stateMutability": "view",
      "type": "function"
    },
    {
      "constant": true,
      "inputs": [],
      "name": "tokenPrice5",
      "outputs": [
        {
          "name": "",
          "type": "uint256"
        }
      ],
      "payable": false,
      "stateMutability": "view",
      "type": "function"
    },
    {
      "constant": true,
      "inputs": [],
      "name": "balanceTokens7",
      "outputs": [
        {
          "name": "",
          "type": "uint256"
        }
      ],
      "payable": false,
      "stateMutability": "view",
      "type": "function"
    },
    {
      "constant": true,
      "inputs": [
        {
          "name": "",
          "type": "uint256"
        }
      ],
      "name": "candidateList",
      "outputs": [
        {
          "name": "",
          "type": "bytes32"
        }
      ],
      "payable": false,
      "stateMutability": "view",
      "type": "function"
    },
    {
      "constant": true,
      "inputs": [],
      "name": "totalTokens6",
      "outputs": [
        {
          "name": "",
          "type": "uint256"
        }
      ],
      "payable": false,
      "stateMutability": "view",
      "type": "function"
    },
    {
      "constant": true,
      "inputs": [],
      "name": "tokenPrice4",
      "outputs": [
        {
          "name": "",
          "type": "uint256"
        }
      ],
      "payable": false,
      "stateMutability": "view",
      "type": "function"
    },
    {
      "constant": true,
      "inputs": [],
      "name": "tokenPrice6",
      "outputs": [
        {
          "name": "",
          "type": "uint256"
        }
      ],
      "payable": false,
      "stateMutability": "view",
      "type": "function"
    },
    {
      "constant": true,
      "inputs": [
        {
          "name": "",
          "type": "address"
        }
      ],
      "name": "voterInfo",
      "outputs": [
        {
          "name": "voterAddress",
          "type": "address"
        },
        {
          "name": "tokensBought",
          "type": "uint256"
        },
        {
          "name": "tokensBought2",
          "type": "uint256"
        },
        {
          "name": "tokensBought3",
          "type": "uint256"
        },
        {
          "name": "tokensBought4",
          "type": "uint256"
        },
        {
          "name": "tokensBought5",
          "type": "uint256"
        },
        {
          "name": "tokensBought6",
          "type": "uint256"
        },
        {
          "name": "tokensBought7",
          "type": "uint256"
        }
      ],
      "payable": false,
      "stateMutability": "view",
      "type": "function"
    },
    {
      "constant": true,
      "inputs": [],
      "name": "totalTokens5",
      "outputs": [
        {
          "name": "",
          "type": "uint256"
        }
      ],
      "payable": false,
      "stateMutability": "view",
      "type": "function"
    },
    {
      "constant": true,
      "inputs": [],
      "name": "totalTokens7",
      "outputs": [
        {
          "name": "",
          "type": "uint256"
        }
      ],
      "payable": false,
      "stateMutability": "view",
      "type": "function"
    },
    {
      "constant": true,
      "inputs": [],
      "name": "balanceTokens",
      "outputs": [
        {
          "name": "",
          "type": "uint256"
        }
      ],
      "payable": false,
      "stateMutability": "view",
      "type": "function"
    },
    {
      "constant": true,
      "inputs": [],
      "name": "balanceTokens3",
      "outputs": [
        {
          "name": "",
          "type": "uint256"
        }
      ],
      "payable": false,
      "stateMutability": "view",
      "type": "function"
    },
    {
      "inputs": [
        {
          "name": "tokens",
          "type": "uint256"
        },
        {
          "name": "tokens2",
          "type": "uint256"
        },
        {
          "name": "tokens3",
          "type": "uint256"
        },
        {
          "name": "tokens4",
          "type": "uint256"
        },
        {
          "name": "tokens5",
          "type": "uint256"
        },
        {
          "name": "tokens6",
          "type": "uint256"
        },
        {
          "name": "tokens7",
          "type": "uint256"
        },
        {
          "name": "pricePerToken",
          "type": "uint256"
        },
        {
          "name": "pricePerToken2",
          "type": "uint256"
        },
        {
          "name": "pricePerToken3",
          "type": "uint256"
        },
        {
          "name": "pricePerToken4",
          "type": "uint256"
        },
        {
          "name": "pricePerToken5",
          "type": "uint256"
        },
        {
          "name": "pricePerToken6",
          "type": "uint256"
        },
        {
          "name": "pricePerToken7",
          "type": "uint256"
        },
        {
          "name": "candidateNames",
          "type": "bytes32[]"
        }
      ],
      "payable": false,
      "stateMutability": "nonpayable",
      "type": "constructor"
    },
    {
      "constant": false,
      "inputs": [],
      "name": "buy",
      "outputs": [
        {
          "name": "",
          "type": "uint256"
        }
      ],
      "payable": true,
      "stateMutability": "payable",
      "type": "function"
    },
    {
      "constant": false,
      "inputs": [],
      "name": "buy2",
      "outputs": [
        {
          "name": "",
          "type": "uint256"
        }
      ],
      "payable": true,
      "stateMutability": "payable",
      "type": "function"
    },
    {
      "constant": false,
      "inputs": [],
      "name": "buy3",
      "outputs": [
        {
          "name": "",
          "type": "uint256"
        }
      ],
      "payable": true,
      "stateMutability": "payable",
      "type": "function"
    },
    {
      "constant": false,
      "inputs": [],
      "name": "buy4",
      "outputs": [
        {
          "name": "",
          "type": "uint256"
        }
      ],
      "payable": true,
      "stateMutability": "payable",
      "type": "function"
    },
    {
      "constant": false,
      "inputs": [],
      "name": "buy5",
      "outputs": [
        {
          "name": "",
          "type": "uint256"
        }
      ],
      "payable": true,
      "stateMutability": "payable",
      "type": "function"
    },
    {
      "constant": false,
      "inputs": [],
      "name": "buy6",
      "outputs": [
        {
          "name": "",
          "type": "uint256"
        }
      ],
      "payable": true,
      "stateMutability": "payable",
      "type": "function"
    },
    {
      "constant": false,
      "inputs": [],
      "name": "buy7",
      "outputs": [
        {
          "name": "",
          "type": "uint256"
        }
      ],
      "payable": true,
      "stateMutability": "payable",
      "type": "function"
    },
    {
      "constant": true,
      "inputs": [
        {
          "name": "candidate",
          "type": "bytes32"
        }
      ],
      "name": "totalVotesFor",
      "outputs": [
        {
          "name": "",
          "type": "uint256"
        }
      ],
      "payable": false,
      "stateMutability": "view",
      "type": "function"
    },
    {
      "constant": false,
      "inputs": [
        {
          "name": "candidate",
          "type": "bytes32"
        },
        {
          "name": "votesInTokens",
          "type": "uint256"
        }
      ],
      "name": "voteForCandidate",
      "outputs": [],
      "payable": false,
      "stateMutability": "nonpayable",
      "type": "function"
    },
    {
      "constant": true,
      "inputs": [
        {
          "name": "candidate",
          "type": "bytes32"
        }
      ],
      "name": "indexOfCandidate",
      "outputs": [
        {
          "name": "",
          "type": "uint256"
        }
      ],
      "payable": false,
      "stateMutability": "view",
      "type": "function"
    },
    {
      "constant": false,
      "inputs": [],
      "name": "returnbuy",
      "outputs": [
        {
          "name": "",
          "type": "uint256"
        }
      ],
      "payable": true,
      "stateMutability": "payable",
      "type": "function"
    },
    {
      "constant": false,
      "inputs": [],
      "name": "returnbuy2",
      "outputs": [
        {
          "name": "",
          "type": "uint256"
        }
      ],
      "payable": true,
      "stateMutability": "payable",
      "type": "function"
    },
    {
      "constant": false,
      "inputs": [],
      "name": "returnbuy3",
      "outputs": [
        {
          "name": "",
          "type": "uint256"
        }
      ],
      "payable": true,
      "stateMutability": "payable",
      "type": "function"
    },
    {
      "constant": false,
      "inputs": [],
      "name": "returnbuy4",
      "outputs": [
        {
          "name": "",
          "type": "uint256"
        }
      ],
      "payable": true,
      "stateMutability": "payable",
      "type": "function"
    },
    {
      "constant": false,
      "inputs": [],
      "name": "returnbuy5",
      "outputs": [
        {
          "name": "",
          "type": "uint256"
        }
      ],
      "payable": true,
      "stateMutability": "payable",
      "type": "function"
    },
    {
      "constant": false,
      "inputs": [],
      "name": "returnbuy6",
      "outputs": [
        {
          "name": "",
          "type": "uint256"
        }
      ],
      "payable": true,
      "stateMutability": "payable",
      "type": "function"
    },
    {
      "constant": false,
      "inputs": [],
      "name": "returnbuy7",
      "outputs": [
        {
          "name": "",
          "type": "uint256"
        }
      ],
      "payable": true,
      "stateMutability": "payable",
      "type": "function"
    },
    {
      "constant": false,
      "inputs": [],
      "name": "returnbuy8",
      "outputs": [
        {
          "name": "",
          "type": "uint256"
        }
      ],
      "payable": true,
      "stateMutability": "payable",
      "type": "function"
    },
    {
      "constant": false,
      "inputs": [],
      "name": "returnbuy9",
      "outputs": [
        {
          "name": "",
          "type": "uint256"
        }
      ],
      "payable": true,
      "stateMutability": "payable",
      "type": "function"
    },
    {
      "constant": false,
      "inputs": [],
      "name": "returnbuy10",
      "outputs": [
        {
          "name": "",
          "type": "uint256"
        }
      ],
      "payable": true,
      "stateMutability": "payable",
      "type": "function"
    },
    {
      "constant": false,
      "inputs": [],
      "name": "returnbuy11",
      "outputs": [
        {
          "name": "",
          "type": "uint256"
        }
      ],
      "payable": true,
      "stateMutability": "payable",
      "type": "function"
    },
    {
      "constant": false,
      "inputs": [],
      "name": "returnbuy12",
      "outputs": [
        {
          "name": "",
          "type": "uint256"
        }
      ],
      "payable": true,
      "stateMutability": "payable",
      "type": "function"
    },
    {
      "constant": false,
      "inputs": [],
      "name": "returnbuy13",
      "outputs": [
        {
          "name": "",
          "type": "uint256"
        }
      ],
      "payable": true,
      "stateMutability": "payable",
      "type": "function"
    },
    {
      "constant": false,
      "inputs": [],
      "name": "returnbuy14",
      "outputs": [
        {
          "name": "",
          "type": "uint256"
        }
      ],
      "payable": true,
      "stateMutability": "payable",
      "type": "function"
    },
    {
      "constant": false,
      "inputs": [],
      "name": "returnbuy15",
      "outputs": [
        {
          "name": "",
          "type": "uint256"
        }
      ],
      "payable": true,
      "stateMutability": "payable",
      "type": "function"
    },
    {
      "constant": false,
      "inputs": [],
      "name": "returnbuy16",
      "outputs": [
        {
          "name": "",
          "type": "uint256"
        }
      ],
      "payable": true,
      "stateMutability": "payable",
      "type": "function"
    },
    {
      "constant": false,
      "inputs": [],
      "name": "returnbuy17",
      "outputs": [
        {
          "name": "",
          "type": "uint256"
        }
      ],
      "payable": true,
      "stateMutability": "payable",
      "type": "function"
    },
    {
      "constant": false,
      "inputs": [],
      "name": "returnbuy18",
      "outputs": [
        {
          "name": "",
          "type": "uint256"
        }
      ],
      "payable": true,
      "stateMutability": "payable",
      "type": "function"
    },
    {
      "constant": false,
      "inputs": [],
      "name": "returnbuy19",
      "outputs": [
        {
          "name": "",
          "type": "uint256"
        }
      ],
      "payable": true,
      "stateMutability": "payable",
      "type": "function"
    },
    {
      "constant": false,
      "inputs": [],
      "name": "returnbuy20",
      "outputs": [
        {
          "name": "",
          "type": "uint256"
        }
      ],
      "payable": true,
      "stateMutability": "payable",
      "type": "function"
    },
    {
      "constant": false,
      "inputs": [],
      "name": "returnbuy21",
      "outputs": [
        {
          "name": "",
          "type": "uint256"
        }
      ],
      "payable": true,
      "stateMutability": "payable",
      "type": "function"
    },
    {
      "constant": false,
      "inputs": [],
      "name": "returnbuy22",
      "outputs": [
        {
          "name": "",
          "type": "uint256"
        }
      ],
      "payable": true,
      "stateMutability": "payable",
      "type": "function"
    },
    {
      "constant": false,
      "inputs": [],
      "name": "returnbuy23",
      "outputs": [
        {
          "name": "",
          "type": "uint256"
        }
      ],
      "payable": true,
      "stateMutability": "payable",
      "type": "function"
    },
    {
      "constant": false,
      "inputs": [],
      "name": "returnbuy24",
      "outputs": [
        {
          "name": "",
          "type": "uint256"
        }
      ],
      "payable": true,
      "stateMutability": "payable",
      "type": "function"
    },
    {
      "constant": false,
      "inputs": [],
      "name": "returnbuy25",
      "outputs": [
        {
          "name": "",
          "type": "uint256"
        }
      ],
      "payable": true,
      "stateMutability": "payable",
      "type": "function"
    },
    {
      "constant": false,
      "inputs": [],
      "name": "returnbuy26",
      "outputs": [
        {
          "name": "",
          "type": "uint256"
        }
      ],
      "payable": true,
      "stateMutability": "payable",
      "type": "function"
    },
    {
      "constant": false,
      "inputs": [],
      "name": "returnbuy27",
      "outputs": [
        {
          "name": "",
          "type": "uint256"
        }
      ],
      "payable": true,
      "stateMutability": "payable",
      "type": "function"
    },
    {
      "constant": false,
      "inputs": [],
      "name": "returnbuy28",
      "outputs": [
        {
          "name": "",
          "type": "uint256"
        }
      ],
      "payable": true,
      "stateMutability": "payable",
      "type": "function"
    },
    {
      "constant": false,
      "inputs": [],
      "name": "returnbuy29",
      "outputs": [
        {
          "name": "",
          "type": "uint256"
        }
      ],
      "payable": true,
      "stateMutability": "payable",
      "type": "function"
    },
    {
      "constant": false,
      "inputs": [],
      "name": "returnbuy30",
      "outputs": [
        {
          "name": "",
          "type": "uint256"
        }
      ],
      "payable": true,
      "stateMutability": "payable",
      "type": "function"
    },
    {
      "constant": false,
      "inputs": [],
      "name": "returnbuy31",
      "outputs": [
        {
          "name": "",
          "type": "uint256"
        }
      ],
      "payable": true,
      "stateMutability": "payable",
      "type": "function"
    },
    {
      "constant": false,
      "inputs": [],
      "name": "returnbuy32",
      "outputs": [
        {
          "name": "",
          "type": "uint256"
        }
      ],
      "payable": true,
      "stateMutability": "payable",
      "type": "function"
    },
    {
      "constant": false,
      "inputs": [],
      "name": "returnbuy33",
      "outputs": [
        {
          "name": "",
          "type": "uint256"
        }
      ],
      "payable": true,
      "stateMutability": "payable",
      "type": "function"
    },
    {
      "constant": false,
      "inputs": [],
      "name": "returnbuy34",
      "outputs": [
        {
          "name": "",
          "type": "uint256"
        }
      ],
      "payable": true,
      "stateMutability": "payable",
      "type": "function"
    },
    {
      "constant": false,
      "inputs": [],
      "name": "returnbuy35",
      "outputs": [
        {
          "name": "",
          "type": "uint256"
        }
      ],
      "payable": true,
      "stateMutability": "payable",
      "type": "function"
    },
    {
      "constant": false,
      "inputs": [],
      "name": "returnbuy36",
      "outputs": [
        {
          "name": "",
          "type": "uint256"
        }
      ],
      "payable": true,
      "stateMutability": "payable",
      "type": "function"
    },
    {
      "constant": false,
      "inputs": [],
      "name": "returnbuy37",
      "outputs": [
        {
          "name": "",
          "type": "uint256"
        }
      ],
      "payable": true,
      "stateMutability": "payable",
      "type": "function"
    },
    {
      "constant": false,
      "inputs": [],
      "name": "returnbuy38",
      "outputs": [
        {
          "name": "",
          "type": "uint256"
        }
      ],
      "payable": true,
      "stateMutability": "payable",
      "type": "function"
    },
    {
      "constant": false,
      "inputs": [],
      "name": "returnbuy39",
      "outputs": [
        {
          "name": "",
          "type": "uint256"
        }
      ],
      "payable": true,
      "stateMutability": "payable",
      "type": "function"
    },
    {
      "constant": false,
      "inputs": [],
      "name": "returnbuy40",
      "outputs": [
        {
          "name": "",
          "type": "uint256"
        }
      ],
      "payable": true,
      "stateMutability": "payable",
      "type": "function"
    },
    {
      "constant": false,
      "inputs": [],
      "name": "returnbuy41",
      "outputs": [
        {
          "name": "",
          "type": "uint256"
        }
      ],
      "payable": true,
      "stateMutability": "payable",
      "type": "function"
    },
    {
      "constant": false,
      "inputs": [],
      "name": "returnbuy42",
      "outputs": [
        {
          "name": "",
          "type": "uint256"
        }
      ],
      "payable": true,
      "stateMutability": "payable",
      "type": "function"
    },
    {
      "constant": true,
      "inputs": [],
      "name": "tokensRemaining",
      "outputs": [
        {
          "name": "",
          "type": "uint256"
        }
      ],
      "payable": false,
      "stateMutability": "view",
      "type": "function"
    },
    {
      "constant": true,
      "inputs": [],
      "name": "tokensRemaining2",
      "outputs": [
        {
          "name": "",
          "type": "uint256"
        }
      ],
      "payable": false,
      "stateMutability": "view",
      "type": "function"
    },
    {
      "constant": true,
      "inputs": [],
      "name": "tokensRemaining3",
      "outputs": [
        {
          "name": "",
          "type": "uint256"
        }
      ],
      "payable": false,
      "stateMutability": "view",
      "type": "function"
    },
    {
      "constant": true,
      "inputs": [],
      "name": "tokensRemaining4",
      "outputs": [
        {
          "name": "",
          "type": "uint256"
        }
      ],
      "payable": false,
      "stateMutability": "view",
      "type": "function"
    },
    {
      "constant": true,
      "inputs": [],
      "name": "tokensRemaining5",
      "outputs": [
        {
          "name": "",
          "type": "uint256"
        }
      ],
      "payable": false,
      "stateMutability": "view",
      "type": "function"
    },
    {
      "constant": true,
      "inputs": [],
      "name": "tokensRemaining6",
      "outputs": [
        {
          "name": "",
          "type": "uint256"
        }
      ],
      "payable": false,
      "stateMutability": "view",
      "type": "function"
    },
    {
      "constant": true,
      "inputs": [],
      "name": "tokensRemaining7",
      "outputs": [
        {
          "name": "",
          "type": "uint256"
        }
      ],
      "payable": false,
      "stateMutability": "view",
      "type": "function"
    },
    {
      "constant": true,
      "inputs": [],
      "name": "tokensSold",
      "outputs": [
        {
          "name": "",
          "type": "uint256"
        }
      ],
      "payable": false,
      "stateMutability": "view",
      "type": "function"
    },
    {
      "constant": true,
      "inputs": [],
      "name": "tokensSold2",
      "outputs": [
        {
          "name": "",
          "type": "uint256"
        }
      ],
      "payable": false,
      "stateMutability": "view",
      "type": "function"
    },
    {
      "constant": true,
      "inputs": [],
      "name": "tokensSold3",
      "outputs": [
        {
          "name": "",
          "type": "uint256"
        }
      ],
      "payable": false,
      "stateMutability": "view",
      "type": "function"
    },
    {
      "constant": true,
      "inputs": [],
      "name": "tokensSold4",
      "outputs": [
        {
          "name": "",
          "type": "uint256"
        }
      ],
      "payable": false,
      "stateMutability": "view",
      "type": "function"
    },
    {
      "constant": true,
      "inputs": [],
      "name": "tokensSold5",
      "outputs": [
        {
          "name": "",
          "type": "uint256"
        }
      ],
      "payable": false,
      "stateMutability": "view",
      "type": "function"
    },
    {
      "constant": true,
      "inputs": [],
      "name": "tokensSold6",
      "outputs": [
        {
          "name": "",
          "type": "uint256"
        }
      ],
      "payable": false,
      "stateMutability": "view",
      "type": "function"
    },
    {
      "constant": true,
      "inputs": [],
      "name": "tokensSold7",
      "outputs": [
        {
          "name": "",
          "type": "uint256"
        }
      ],
      "payable": false,
      "stateMutability": "view",
      "type": "function"
    },
    {
      "constant": true,
      "inputs": [
        {
          "name": "user",
          "type": "address"
        }
      ],
      "name": "voterDetails",
      "outputs": [
        {
          "name": "",
          "type": "uint256"
        },
        {
          "name": "",
          "type": "uint256"
        },
        {
          "name": "",
          "type": "uint256"
        },
        {
          "name": "",
          "type": "uint256"
        },
        {
          "name": "",
          "type": "uint256"
        },
        {
          "name": "",
          "type": "uint256"
        },
        {
          "name": "",
          "type": "uint256"
        }
      ],
      "payable": false,
      "stateMutability": "view",
      "type": "function"
    },
    {
      "constant": false,
      "inputs": [
        {
          "name": "account",
          "type": "address"
        }
      ],
      "name": "transferTo",
      "outputs": [],
      "payable": false,
      "stateMutability": "nonpayable",
      "type": "function"
    },
    {
      "constant": true,
      "inputs": [],
      "name": "allCandidates",
      "outputs": [
        {
          "name": "",
          "type": "bytes32[]"
        }
      ],
      "payable": false,
      "stateMutability": "view",
      "type": "function"
    }
  ],
  "bytecode": "0x60806040523480156200001157600080fd5b5060405162004b7438038062004b748339810180604052810190808051906020019092919080519060200190929190805190602001909291908051906020019092919080519060200190929190805190602001909291908051906020019092919080519060200190929190805190602001909291908051906020019092919080519060200190929190805190602001909291908051906020019092919080519060200190929190805182019291905050508060029080519060200190620000da92919062000183565b508e6003819055508d6004819055508c6005819055508b6006819055508a60078190555089600881905550886009819055508e600a819055508d600b819055508c600c819055508b600d819055508a600e8190555089600f81905550886010819055508760118190555086601281905550856013819055508460148190555083601581905550826016819055508160178190555050505050505050505050505050505062000203565b828054828255906000526020600020908101928215620001c8579160200282015b82811115620001c7578251829060001916905591602001919060010190620001a4565b5b509050620001d79190620001db565b5090565b6200020091905b80821115620001fc576000816000905550600101620001e2565b5090565b90565b61496180620002136000396000f300608060405260043610610435576000357c0100000000000000000000000000000000000000000000000000000000900463ffffffff168063082cf9051461043a5780630ae3b5b2146104585780630d643a771461048357806310bd2093146104a157806310ed0f43146104bf5780631643ac2d146104ea57806316ea32f214610515578063175bde941461053357806319e30e221461055e57806320cd1a831461057c578063213333a3146105a757806326d76aab146105c55780632f265cf7146105e357806333852b9b1461062857806338971993146106465780633e7d532b146106715780634423a5921461069c57806348a92b22146106c7578063493a69ef146106e55780634ed0026814610703578063518ab2a81461072e5780635938750d146107595780635c1cb154146107da5780635d633f19146107f85780635ef3d52e146108235780635f8c9ed1146108415780636118dcab1461085f57806363978f6d1461087d578063641c33e71461089b57806364d15dd5146108b957806365220a80146108e4578063659fc2f81461090257806367a791b91461092d5780636b2dc6b51461094b5780636f8973ad146109865780637021939f146109b15780637127beaa146109f65780637222c8af14610a2157806377873c5f14610a4c5780637abf5b7614610a6a5780637e1c0c0914610a955780637ff9b59614610ac057806381c4071514610aeb57806386eac29914610b5757806387c253ed14610b7557806388059b2114610b935780638a8839aa14610bb15780638d5ae03c14610bcf5780638f51b5e414610bed5780638fcf4a7f14610c1857806390b77eeb14610c43578063923c19c214610c6e5780639247a61f14610c8c578063968eb30414610caa57806397acb0f614610cc85780639df4c49014610ce65780639e4f1fd414610d115780639e64933114610d3c578063a03fa7e314610d5a578063a25e87db14610d9d578063a284e09714610dbb578063a3702e5014610de6578063a454688114610e04578063a6f2ae3a14610e22578063a6f3a47a14610e40578063ac2f765214610e5e578063acb3044414610e7c578063b101d6fa14610e9a578063b13c744b14610eb8578063b9bb436c14610f01578063bf3c30e114610f1f578063c071e61614610f4a578063c0f056d814610f68578063c4d78ddd14610f86578063c8b0812514610fb1578063cae194b014610fdc578063cd4574c614611007578063cdb04c7f14611032578063cdf58d3514611050578063ce9d41a214611104578063d66fc3201461112f578063d84201bf1461114d578063dad6226f1461116b578063dbd6170214611189578063e0184167146111b4578063e4494a0f146111df578063e69377a51461120a578063e74e63d714611228578063ecd098b014611246578063f17a32531461128b578063f6aac5e0146112a9578063f6f34da7146112d4578063fd2e90f6146112f2575b600080fd5b610442611310565b6040518082815260200191505060405180910390f35b34801561046457600080fd5b5061046d6113fd565b6040518082815260200191505060405180910390f35b61048b611407565b6040518082815260200191505060405180910390f35b6104a96114f4565b6040518082815260200191505060405180910390f35b3480156104cb57600080fd5b506104d46115fe565b6040518082815260200191505060405180910390f35b3480156104f657600080fd5b506104ff611604565b6040518082815260200191505060405180910390f35b61051d611612565b6040518082815260200191505060405180910390f35b34801561053f57600080fd5b506105486116ff565b6040518082815260200191505060405180910390f35b610566611705565b6040518082815260200191505060405180910390f35b34801561058857600080fd5b506105916117f2565b6040518082815260200191505060405180910390f35b6105af611800565b6040518082815260200191505060405180910390f35b6105cd6118ed565b6040518082815260200191505060405180910390f35b3480156105ef57600080fd5b5061061260048036038101908080356000191690602001909291905050506119da565b6040518082815260200191505060405180910390f35b6106306119ff565b6040518082815260200191505060405180910390f35b34801561065257600080fd5b5061065b611aec565b6040518082815260200191505060405180910390f35b34801561067d57600080fd5b50610686611afa565b6040518082815260200191505060405180910390f35b3480156106a857600080fd5b506106b1611b00565b6040518082815260200191505060405180910390f35b6106cf611b06565b6040518082815260200191505060405180910390f35b6106ed611bf3565b6040518082815260200191505060405180910390f35b34801561070f57600080fd5b50610718611ce0565b6040518082815260200191505060405180910390f35b34801561073a57600080fd5b50610743611ce6565b6040518082815260200191505060405180910390f35b34801561076557600080fd5b5061079a600480360381019080803573ffffffffffffffffffffffffffffffffffffffff169060200190929190505050611cf4565b6040518088815260200187815260200186815260200185815260200184815260200183815260200182815260200197505050505050505060405180910390f35b6107e2611ee6565b6040518082815260200191505060405180910390f35b34801561080457600080fd5b5061080d611fd3565b6040518082815260200191505060405180910390f35b61082b611fdd565b6040518082815260200191505060405180910390f35b6108496120ca565b6040518082815260200191505060405180910390f35b6108676121b7565b6040518082815260200191505060405180910390f35b6108856122a4565b6040518082815260200191505060405180910390f35b6108a3612391565b6040518082815260200191505060405180910390f35b3480156108c557600080fd5b506108ce61247e565b6040518082815260200191505060405180910390f35b6108ec612488565b6040518082815260200191505060405180910390f35b34801561090e57600080fd5b50610917612575565b6040518082815260200191505060405180910390f35b610935612583565b6040518082815260200191505060405180910390f35b34801561095757600080fd5b50610984600480360381019080803560001916906020019092919080359060200190929190505050612670565b005b34801561099257600080fd5b5061099b61290a565b6040518082815260200191505060405180910390f35b3480156109bd57600080fd5b506109e06004803603810190808035600019169060200190929190505050612918565b6040518082815260200191505060405180910390f35b348015610a0257600080fd5b50610a0b612930565b6040518082815260200191505060405180910390f35b348015610a2d57600080fd5b50610a36612936565b6040518082815260200191505060405180910390f35b610a5461293c565b6040518082815260200191505060405180910390f35b348015610a7657600080fd5b50610a7f612a29565b6040518082815260200191505060405180910390f35b348015610aa157600080fd5b50610aaa612a33565b6040518082815260200191505060405180910390f35b348015610acc57600080fd5b50610ad5612a39565b6040518082815260200191505060405180910390f35b348015610af757600080fd5b50610b00612a3f565b6040518080602001828103825283818151815260200191508051906020019060200280838360005b83811015610b43578082015181840152602081019050610b28565b505050509050019250505060405180910390f35b610b5f612a9b565b6040518082815260200191505060405180910390f35b610b7d612ba5565b6040518082815260200191505060405180910390f35b610b9b612c92565b6040518082815260200191505060405180910390f35b610bb9612d7f565b6040518082815260200191505060405180910390f35b610bd7612e6c565b6040518082815260200191505060405180910390f35b348015610bf957600080fd5b50610c02612f59565b6040518082815260200191505060405180910390f35b348015610c2457600080fd5b50610c2d612f5f565b6040518082815260200191505060405180910390f35b348015610c4f57600080fd5b50610c58612f65565b6040518082815260200191505060405180910390f35b610c76612f6b565b6040518082815260200191505060405180910390f35b610c94613058565b6040518082815260200191505060405180910390f35b610cb2613145565b6040518082815260200191505060405180910390f35b610cd0613232565b6040518082815260200191505060405180910390f35b348015610cf257600080fd5b50610cfb61331f565b6040518082815260200191505060405180910390f35b348015610d1d57600080fd5b50610d2661332d565b6040518082815260200191505060405180910390f35b610d44613333565b6040518082815260200191505060405180910390f35b348015610d6657600080fd5b50610d9b600480360381019080803573ffffffffffffffffffffffffffffffffffffffff169060200190929190505050613420565b005b610da5613481565b6040518082815260200191505060405180910390f35b348015610dc757600080fd5b50610dd061356e565b6040518082815260200191505060405180910390f35b610dee613574565b6040518082815260200191505060405180910390f35b610e0c613661565b6040518082815260200191505060405180910390f35b610e2a61374e565b6040518082815260200191505060405180910390f35b610e48613858565b6040518082815260200191505060405180910390f35b610e66613945565b6040518082815260200191505060405180910390f35b610e84613a32565b6040518082815260200191505060405180910390f35b610ea2613b3c565b6040518082815260200191505060405180910390f35b348015610ec457600080fd5b50610ee360048036038101908080359060200190929190505050613c29565b60405180826000191660001916815260200191505060405180910390f35b610f09613c4c565b6040518082815260200191505060405180910390f35b348015610f2b57600080fd5b50610f34613d39565b6040518082815260200191505060405180910390f35b610f52613d3f565b6040518082815260200191505060405180910390f35b610f70613e49565b6040518082815260200191505060405180910390f35b348015610f9257600080fd5b50610f9b613f36565b6040518082815260200191505060405180910390f35b348015610fbd57600080fd5b50610fc6613f3c565b6040518082815260200191505060405180910390f35b348015610fe857600080fd5b50610ff1613f46565b6040518082815260200191505060405180910390f35b34801561101357600080fd5b5061101c613f4c565b6040518082815260200191505060405180910390f35b61103a613f56565b6040518082815260200191505060405180910390f35b34801561105c57600080fd5b50611091600480360381019080803573ffffffffffffffffffffffffffffffffffffffff169060200190929190505050614043565b604051808973ffffffffffffffffffffffffffffffffffffffff1673ffffffffffffffffffffffffffffffffffffffff1681526020018881526020018781526020018681526020018581526020018481526020018381526020018281526020019850505050505050505060405180910390f35b34801561111057600080fd5b506111196140ab565b6040518082815260200191505060405180910390f35b6111376140b5565b6040518082815260200191505060405180910390f35b6111556141a2565b6040518082815260200191505060405180910390f35b6111736142ac565b6040518082815260200191505060405180910390f35b34801561119557600080fd5b5061119e614399565b6040518082815260200191505060405180910390f35b3480156111c057600080fd5b506111c961439f565b6040518082815260200191505060405180910390f35b3480156111eb57600080fd5b506111f46143a5565b6040518082815260200191505060405180910390f35b6112126143ab565b6040518082815260200191505060405180910390f35b611230614498565b6040518082815260200191505060405180910390f35b34801561125257600080fd5b5061127560048036038101908080356000191690602001909291905050506145a2565b6040518082815260200191505060405180910390f35b61129361461f565b6040518082815260200191505060405180910390f35b3480156112b557600080fd5b506112be61470c565b6040518082815260200191505060405180910390f35b6112dc614712565b6040518082815260200191505060405180910390f35b6112fa6147ff565b6040518082815260200191505060405180910390f35b60008060049050336000803373ffffffffffffffffffffffffffffffffffffffff1673ffffffffffffffffffffffffffffffffffffffff16815260200190815260200160002060000160006101000a81548173ffffffffffffffffffffffffffffffffffffffff021916908373ffffffffffffffffffffffffffffffffffffffff160217905550806000803373ffffffffffffffffffffffffffffffffffffffff1673ffffffffffffffffffffffffffffffffffffffff1681526020019081526020016000206005016000828254039250508190555080600e600082825401925050819055508091505090565b6000601054905090565b60008060029050336000803373ffffffffffffffffffffffffffffffffffffffff1673ffffffffffffffffffffffffffffffffffffffff16815260200190815260200160002060000160006101000a81548173ffffffffffffffffffffffffffffffffffffffff021916908373ffffffffffffffffffffffffffffffffffffffff160217905550806000803373ffffffffffffffffffffffffffffffffffffffff1673ffffffffffffffffffffffffffffffffffffffff1681526020019081526020016000206004016000828254039250508190555080600d600082825401925050819055508091505090565b6000806014543481151561150457fe5b049050600d54811115151561151857600080fd5b336000803373ffffffffffffffffffffffffffffffffffffffff1673ffffffffffffffffffffffffffffffffffffffff16815260200190815260200160002060000160006101000a81548173ffffffffffffffffffffffffffffffffffffffff021916908373ffffffffffffffffffffffffffffffffffffffff160217905550806000803373ffffffffffffffffffffffffffffffffffffffff1673ffffffffffffffffffffffffffffffffffffffff1681526020019081526020016000206004016000828254019250508190555080600d600082825403925050819055508091505090565b600b5481565b6000600e5460075403905090565b60008060069050336000803373ffffffffffffffffffffffffffffffffffffffff1673ffffffffffffffffffffffffffffffffffffffff16815260200190815260200160002060000160006101000a81548173ffffffffffffffffffffffffffffffffffffffff021916908373ffffffffffffffffffffffffffffffffffffffff160217905550806000803373ffffffffffffffffffffffffffffffffffffffff1673ffffffffffffffffffffffffffffffffffffffff1681526020019081526020016000206002016000828254039250508190555080600b600082825401925050819055508091505090565b60135481565b60008060029050336000803373ffffffffffffffffffffffffffffffffffffffff1673ffffffffffffffffffffffffffffffffffffffff16815260200190815260200160002060000160006101000a81548173ffffffffffffffffffffffffffffffffffffffff021916908373ffffffffffffffffffffffffffffffffffffffff160217905550806000803373ffffffffffffffffffffffffffffffffffffffff1673ffffffffffffffffffffffffffffffffffffffff1681526020019081526020016000206005016000828254039250508190555080600e600082825401925050819055508091505090565b6000600c5460055403905090565b60008060049050336000803373ffffffffffffffffffffffffffffffffffffffff1673ffffffffffffffffffffffffffffffffffffffff16815260200190815260200160002060000160006101000a81548173ffffffffffffffffffffffffffffffffffffffff021916908373ffffffffffffffffffffffffffffffffffffffff160217905550806000803373ffffffffffffffffffffffffffffffffffffffff1673ffffffffffffffffffffffffffffffffffffffff16815260200190815260200160002060070160008282540392505081905550806010600082825401925050819055508091505090565b60008060069050336000803373ffffffffffffffffffffffffffffffffffffffff1673ffffffffffffffffffffffffffffffffffffffff16815260200190815260200160002060000160006101000a81548173ffffffffffffffffffffffffffffffffffffffff021916908373ffffffffffffffffffffffffffffffffffffffff160217905550806000803373ffffffffffffffffffffffffffffffffffffffff1673ffffffffffffffffffffffffffffffffffffffff1681526020019081526020016000206003016000828254039250508190555080600c600082825401925050819055508091505090565b6000600160008360001916600019168152602001908152602001600020549050919050565b60008060049050336000803373ffffffffffffffffffffffffffffffffffffffff1673ffffffffffffffffffffffffffffffffffffffff16815260200190815260200160002060000160006101000a81548173ffffffffffffffffffffffffffffffffffffffff021916908373ffffffffffffffffffffffffffffffffffffffff160217905550806000803373ffffffffffffffffffffffffffffffffffffffff1673ffffffffffffffffffffffffffffffffffffffff1681526020019081526020016000206004016000828254039250508190555080600d600082825401925050819055508091505090565b6000600b5460045403905090565b60065481565b600f5481565b60008060019050336000803373ffffffffffffffffffffffffffffffffffffffff1673ffffffffffffffffffffffffffffffffffffffff16815260200190815260200160002060000160006101000a81548173ffffffffffffffffffffffffffffffffffffffff021916908373ffffffffffffffffffffffffffffffffffffffff160217905550806000803373ffffffffffffffffffffffffffffffffffffffff1673ffffffffffffffffffffffffffffffffffffffff16815260200190815260200160002060070160008282540392505081905550806010600082825401925050819055508091505090565b60008060059050336000803373ffffffffffffffffffffffffffffffffffffffff1673ffffffffffffffffffffffffffffffffffffffff16815260200190815260200160002060000160006101000a81548173ffffffffffffffffffffffffffffffffffffffff021916908373ffffffffffffffffffffffffffffffffffffffff160217905550806000803373ffffffffffffffffffffffffffffffffffffffff1673ffffffffffffffffffffffffffffffffffffffff16815260200190815260200160002060070160008282540392505081905550806010600082825401925050819055508091505090565b60055481565b6000600a5460035403905090565b60008060008060008060008060008973ffffffffffffffffffffffffffffffffffffffff1673ffffffffffffffffffffffffffffffffffffffff168152602001908152602001600020600101546000808a73ffffffffffffffffffffffffffffffffffffffff1673ffffffffffffffffffffffffffffffffffffffff168152602001908152602001600020600201546000808b73ffffffffffffffffffffffffffffffffffffffff1673ffffffffffffffffffffffffffffffffffffffff168152602001908152602001600020600301546000808c73ffffffffffffffffffffffffffffffffffffffff1673ffffffffffffffffffffffffffffffffffffffff168152602001908152602001600020600401546000808d73ffffffffffffffffffffffffffffffffffffffff1673ffffffffffffffffffffffffffffffffffffffff168152602001908152602001600020600501546000808e73ffffffffffffffffffffffffffffffffffffffff1673ffffffffffffffffffffffffffffffffffffffff168152602001908152602001600020600601546000808f73ffffffffffffffffffffffffffffffffffffffff1673ffffffffffffffffffffffffffffffffffffffff168152602001908152602001600020600701549650965096509650965096509650919395979092949650565b60008060039050336000803373ffffffffffffffffffffffffffffffffffffffff1673ffffffffffffffffffffffffffffffffffffffff16815260200190815260200160002060000160006101000a81548173ffffffffffffffffffffffffffffffffffffffff021916908373ffffffffffffffffffffffffffffffffffffffff160217905550806000803373ffffffffffffffffffffffffffffffffffffffff1673ffffffffffffffffffffffffffffffffffffffff16815260200190815260200160002060070160008282540392505081905550806010600082825401925050819055508091505090565b6000600e54905090565b60008060069050336000803373ffffffffffffffffffffffffffffffffffffffff1673ffffffffffffffffffffffffffffffffffffffff16815260200190815260200160002060000160006101000a81548173ffffffffffffffffffffffffffffffffffffffff021916908373ffffffffffffffffffffffffffffffffffffffff160217905550806000803373ffffffffffffffffffffffffffffffffffffffff1673ffffffffffffffffffffffffffffffffffffffff1681526020019081526020016000206001016000828254039250508190555080600a600082825401925050819055508091505090565b60008060049050336000803373ffffffffffffffffffffffffffffffffffffffff1673ffffffffffffffffffffffffffffffffffffffff16815260200190815260200160002060000160006101000a81548173ffffffffffffffffffffffffffffffffffffffff021916908373ffffffffffffffffffffffffffffffffffffffff160217905550806000803373ffffffffffffffffffffffffffffffffffffffff1673ffffffffffffffffffffffffffffffffffffffff1681526020019081526020016000206001016000828254039250508190555080600a600082825401925050819055508091505090565b60008060039050336000803373ffffffffffffffffffffffffffffffffffffffff1673ffffffffffffffffffffffffffffffffffffffff16815260200190815260200160002060000160006101000a81548173ffffffffffffffffffffffffffffffffffffffff021916908373ffffffffffffffffffffffffffffffffffffffff160217905550806000803373ffffffffffffffffffffffffffffffffffffffff1673ffffffffffffffffffffffffffffffffffffffff1681526020019081526020016000206002016000828254039250508190555080600b600082825401925050819055508091505090565b60008060069050336000803373ffffffffffffffffffffffffffffffffffffffff1673ffffffffffffffffffffffffffffffffffffffff16815260200190815260200160002060000160006101000a81548173ffffffffffffffffffffffffffffffffffffffff021916908373ffffffffffffffffffffffffffffffffffffffff160217905550806000803373ffffffffffffffffffffffffffffffffffffffff1673ffffffffffffffffffffffffffffffffffffffff1681526020019081526020016000206006016000828254039250508190555080600f600082825401925050819055508091505090565b60008060039050336000803373ffffffffffffffffffffffffffffffffffffffff1673ffffffffffffffffffffffffffffffffffffffff16815260200190815260200160002060000160006101000a81548173ffffffffffffffffffffffffffffffffffffffff021916908373ffffffffffffffffffffffffffffffffffffffff160217905550806000803373ffffffffffffffffffffffffffffffffffffffff1673ffffffffffffffffffffffffffffffffffffffff1681526020019081526020016000206006016000828254039250508190555080600f600082825401925050819055508091505090565b6000600b54905090565b60008060039050336000803373ffffffffffffffffffffffffffffffffffffffff1673ffffffffffffffffffffffffffffffffffffffff16815260200190815260200160002060000160006101000a81548173ffffffffffffffffffffffffffffffffffffffff021916908373ffffffffffffffffffffffffffffffffffffffff160217905550806000803373ffffffffffffffffffffffffffffffffffffffff1673ffffffffffffffffffffffffffffffffffffffff1681526020019081526020016000206001016000828254039250508190555080600a600082825401925050819055508091505090565b6000600d5460065403905090565b60008060019050336000803373ffffffffffffffffffffffffffffffffffffffff1673ffffffffffffffffffffffffffffffffffffffff16815260200190815260200160002060000160006101000a81548173ffffffffffffffffffffffffffffffffffffffff021916908373ffffffffffffffffffffffffffffffffffffffff160217905550806000803373ffffffffffffffffffffffffffffffffffffffff1673ffffffffffffffffffffffffffffffffffffffff1681526020019081526020016000206002016000828254039250508190555080600b600082825401925050819055508091505090565b600080600061267e856145a2565b92507fffffffffffffffffffffffffffffffffffffffffffffffffffffffffffffffff83141515156126af57600080fd5b60008060003373ffffffffffffffffffffffffffffffffffffffff1673ffffffffffffffffffffffffffffffffffffffff16815260200190815260200160002060080180549050141561278857600091505b600280549050821015612787576000803373ffffffffffffffffffffffffffffffffffffffff1673ffffffffffffffffffffffffffffffffffffffff168152602001908152602001600020600801600090806001815401808255809150509060018203906000526020600020016000909192909190915055508180600101925050612701565b5b6128206000803373ffffffffffffffffffffffffffffffffffffffff1673ffffffffffffffffffffffffffffffffffffffff16815260200190815260200160002060080180548060200260200160405190810160405280929190818152602001828054801561281657602002820191906000526020600020905b815481526020019060010190808311612802575b50505050506148ec565b6000803373ffffffffffffffffffffffffffffffffffffffff1673ffffffffffffffffffffffffffffffffffffffff1681526020019081526020016000206001015403905083811015151561287457600080fd5b8360016000876000191660001916815260200190815260200160002060008282540192505081905550836000803373ffffffffffffffffffffffffffffffffffffffff1673ffffffffffffffffffffffffffffffffffffffff168152602001908152602001600020600801848154811015156128ec57fe5b90600052602060002001600082825401925050819055505050505050565b600060105460095403905090565b60016020528060005260406000206000915090505481565b60125481565b600d5481565b60008060039050336000803373ffffffffffffffffffffffffffffffffffffffff1673ffffffffffffffffffffffffffffffffffffffff16815260200190815260200160002060000160006101000a81548173ffffffffffffffffffffffffffffffffffffffff021916908373ffffffffffffffffffffffffffffffffffffffff160217905550806000803373ffffffffffffffffffffffffffffffffffffffff1673ffffffffffffffffffffffffffffffffffffffff1681526020019081526020016000206005016000828254039250508190555080600e600082825401925050819055508091505090565b6000600d54905090565b60035481565b60115481565b60606002805480602002602001604051908101604052809291908181526020018280548015612a9157602002820191906000526020600020905b81546000191681526020019060010190808311612a79575b5050505050905090565b60008060125434811515612aab57fe5b049050600b548111151515612abf57600080fd5b336000803373ffffffffffffffffffffffffffffffffffffffff1673ffffffffffffffffffffffffffffffffffffffff16815260200190815260200160002060000160006101000a81548173ffffffffffffffffffffffffffffffffffffffff021916908373ffffffffffffffffffffffffffffffffffffffff160217905550806000803373ffffffffffffffffffffffffffffffffffffffff1673ffffffffffffffffffffffffffffffffffffffff1681526020019081526020016000206002016000828254019250508190555080600b600082825403925050819055508091505090565b60008060019050336000803373ffffffffffffffffffffffffffffffffffffffff1673ffffffffffffffffffffffffffffffffffffffff16815260200190815260200160002060000160006101000a81548173ffffffffffffffffffffffffffffffffffffffff021916908373ffffffffffffffffffffffffffffffffffffffff160217905550806000803373ffffffffffffffffffffffffffffffffffffffff1673ffffffffffffffffffffffffffffffffffffffff1681526020019081526020016000206001016000828254039250508190555080600a600082825401925050819055508091505090565b60008060059050336000803373ffffffffffffffffffffffffffffffffffffffff1673ffffffffffffffffffffffffffffffffffffffff16815260200190815260200160002060000160006101000a81548173ffffffffffffffffffffffffffffffffffffffff021916908373ffffffffffffffffffffffffffffffffffffffff160217905550806000803373ffffffffffffffffffffffffffffffffffffffff1673ffffffffffffffffffffffffffffffffffffffff1681526020019081526020016000206002016000828254039250508190555080600b600082825401925050819055508091505090565b60008060049050336000803373ffffffffffffffffffffffffffffffffffffffff1673ffffffffffffffffffffffffffffffffffffffff16815260200190815260200160002060000160006101000a81548173ffffffffffffffffffffffffffffffffffffffff021916908373ffffffffffffffffffffffffffffffffffffffff160217905550806000803373ffffffffffffffffffffffffffffffffffffffff1673ffffffffffffffffffffffffffffffffffffffff1681526020019081526020016000206003016000828254039250508190555080600c600082825401925050819055508091505090565b60008060029050336000803373ffffffffffffffffffffffffffffffffffffffff1673ffffffffffffffffffffffffffffffffffffffff16815260200190815260200160002060000160006101000a81548173ffffffffffffffffffffffffffffffffffffffff021916908373ffffffffffffffffffffffffffffffffffffffff160217905550806000803373ffffffffffffffffffffffffffffffffffffffff1673ffffffffffffffffffffffffffffffffffffffff1681526020019081526020016000206006016000828254039250508190555080600f600082825401925050819055508091505090565b600e5481565b60045481565b60175481565b60008060019050336000803373ffffffffffffffffffffffffffffffffffffffff1673ffffffffffffffffffffffffffffffffffffffff16815260200190815260200160002060000160006101000a81548173ffffffffffffffffffffffffffffffffffffffff021916908373ffffffffffffffffffffffffffffffffffffffff160217905550806000803373ffffffffffffffffffffffffffffffffffffffff1673ffffffffffffffffffffffffffffffffffffffff1681526020019081526020016000206006016000828254039250508190555080600f600082825401925050819055508091505090565b60008060069050336000803373ffffffffffffffffffffffffffffffffffffffff1673ffffffffffffffffffffffffffffffffffffffff16815260200190815260200160002060000160006101000a81548173ffffffffffffffffffffffffffffffffffffffff021916908373ffffffffffffffffffffffffffffffffffffffff160217905550806000803373ffffffffffffffffffffffffffffffffffffffff1673ffffffffffffffffffffffffffffffffffffffff16815260200190815260200160002060070160008282540392505081905550806010600082825401925050819055508091505090565b60008060059050336000803373ffffffffffffffffffffffffffffffffffffffff1673ffffffffffffffffffffffffffffffffffffffff16815260200190815260200160002060000160006101000a81548173ffffffffffffffffffffffffffffffffffffffff021916908373ffffffffffffffffffffffffffffffffffffffff160217905550806000803373ffffffffffffffffffffffffffffffffffffffff1673ffffffffffffffffffffffffffffffffffffffff1681526020019081526020016000206001016000828254039250508190555080600a600082825401925050819055508091505090565b60008060039050336000803373ffffffffffffffffffffffffffffffffffffffff1673ffffffffffffffffffffffffffffffffffffffff16815260200190815260200160002060000160006101000a81548173ffffffffffffffffffffffffffffffffffffffff021916908373ffffffffffffffffffffffffffffffffffffffff160217905550806000803373ffffffffffffffffffffffffffffffffffffffff1673ffffffffffffffffffffffffffffffffffffffff1681526020019081526020016000206003016000828254039250508190555080600c600082825401925050819055508091505090565b6000600f5460085403905090565b60155481565b60008060059050336000803373ffffffffffffffffffffffffffffffffffffffff1673ffffffffffffffffffffffffffffffffffffffff16815260200190815260200160002060000160006101000a81548173ffffffffffffffffffffffffffffffffffffffff021916908373ffffffffffffffffffffffffffffffffffffffff160217905550806000803373ffffffffffffffffffffffffffffffffffffffff1673ffffffffffffffffffffffffffffffffffffffff1681526020019081526020016000206006016000828254039250508190555080600f600082825401925050819055508091505090565b8073ffffffffffffffffffffffffffffffffffffffff166108fc3073ffffffffffffffffffffffffffffffffffffffff16319081150290604051600060405180830381858888f1935050505015801561347d573d6000803e3d6000fd5b5050565b60008060019050336000803373ffffffffffffffffffffffffffffffffffffffff1673ffffffffffffffffffffffffffffffffffffffff16815260200190815260200160002060000160006101000a81548173ffffffffffffffffffffffffffffffffffffffff021916908373ffffffffffffffffffffffffffffffffffffffff160217905550806000803373ffffffffffffffffffffffffffffffffffffffff1673ffffffffffffffffffffffffffffffffffffffff1681526020019081526020016000206005016000828254039250508190555080600e600082825401925050819055508091505090565b60105481565b60008060029050336000803373ffffffffffffffffffffffffffffffffffffffff1673ffffffffffffffffffffffffffffffffffffffff16815260200190815260200160002060000160006101000a81548173ffffffffffffffffffffffffffffffffffffffff021916908373ffffffffffffffffffffffffffffffffffffffff160217905550806000803373ffffffffffffffffffffffffffffffffffffffff1673ffffffffffffffffffffffffffffffffffffffff1681526020019081526020016000206003016000828254039250508190555080600c600082825401925050819055508091505090565b60008060029050336000803373ffffffffffffffffffffffffffffffffffffffff1673ffffffffffffffffffffffffffffffffffffffff16815260200190815260200160002060000160006101000a81548173ffffffffffffffffffffffffffffffffffffffff021916908373ffffffffffffffffffffffffffffffffffffffff160217905550806000803373ffffffffffffffffffffffffffffffffffffffff1673ffffffffffffffffffffffffffffffffffffffff1681526020019081526020016000206001016000828254039250508190555080600a600082825401925050819055508091505090565b6000806011543481151561375e57fe5b049050600a54811115151561377257600080fd5b336000803373ffffffffffffffffffffffffffffffffffffffff1673ffffffffffffffffffffffffffffffffffffffff16815260200190815260200160002060000160006101000a81548173ffffffffffffffffffffffffffffffffffffffff021916908373ffffffffffffffffffffffffffffffffffffffff160217905550806000803373ffffffffffffffffffffffffffffffffffffffff1673ffffffffffffffffffffffffffffffffffffffff1681526020019081526020016000206001016000828254019250508190555080600a600082825403925050819055508091505090565b60008060059050336000803373ffffffffffffffffffffffffffffffffffffffff1673ffffffffffffffffffffffffffffffffffffffff16815260200190815260200160002060000160006101000a81548173ffffffffffffffffffffffffffffffffffffffff021916908373ffffffffffffffffffffffffffffffffffffffff160217905550806000803373ffffffffffffffffffffffffffffffffffffffff1673ffffffffffffffffffffffffffffffffffffffff1681526020019081526020016000206004016000828254039250508190555080600d600082825401925050819055508091505090565b60008060069050336000803373ffffffffffffffffffffffffffffffffffffffff1673ffffffffffffffffffffffffffffffffffffffff16815260200190815260200160002060000160006101000a81548173ffffffffffffffffffffffffffffffffffffffff021916908373ffffffffffffffffffffffffffffffffffffffff160217905550806000803373ffffffffffffffffffffffffffffffffffffffff1673ffffffffffffffffffffffffffffffffffffffff1681526020019081526020016000206005016000828254039250508190555080600e600082825401925050819055508091505090565b60008060135434811515613a4257fe5b049050600c548111151515613a5657600080fd5b336000803373ffffffffffffffffffffffffffffffffffffffff1673ffffffffffffffffffffffffffffffffffffffff16815260200190815260200160002060000160006101000a81548173ffffffffffffffffffffffffffffffffffffffff021916908373ffffffffffffffffffffffffffffffffffffffff160217905550806000803373ffffffffffffffffffffffffffffffffffffffff1673ffffffffffffffffffffffffffffffffffffffff1681526020019081526020016000206003016000828254019250508190555080600c600082825403925050819055508091505090565b60008060049050336000803373ffffffffffffffffffffffffffffffffffffffff1673ffffffffffffffffffffffffffffffffffffffff16815260200190815260200160002060000160006101000a81548173ffffffffffffffffffffffffffffffffffffffff021916908373ffffffffffffffffffffffffffffffffffffffff160217905550806000803373ffffffffffffffffffffffffffffffffffffffff1673ffffffffffffffffffffffffffffffffffffffff1681526020019081526020016000206002016000828254039250508190555080600b600082825401925050819055508091505090565b600281815481101515613c3857fe5b906000526020600020016000915090505481565b60008060059050336000803373ffffffffffffffffffffffffffffffffffffffff1673ffffffffffffffffffffffffffffffffffffffff16815260200190815260200160002060000160006101000a81548173ffffffffffffffffffffffffffffffffffffffff021916908373ffffffffffffffffffffffffffffffffffffffff160217905550806000803373ffffffffffffffffffffffffffffffffffffffff1673ffffffffffffffffffffffffffffffffffffffff1681526020019081526020016000206005016000828254039250508190555080600e600082825401925050819055508091505090565b60085481565b60008060175434811515613d4f57fe5b0490506010548111151515613d6357600080fd5b336000803373ffffffffffffffffffffffffffffffffffffffff1673ffffffffffffffffffffffffffffffffffffffff16815260200190815260200160002060000160006101000a81548173ffffffffffffffffffffffffffffffffffffffff021916908373ffffffffffffffffffffffffffffffffffffffff160217905550806000803373ffffffffffffffffffffffffffffffffffffffff1673ffffffffffffffffffffffffffffffffffffffff16815260200190815260200160002060070160008282540192505081905550806010600082825403925050819055508091505090565b60008060069050336000803373ffffffffffffffffffffffffffffffffffffffff1673ffffffffffffffffffffffffffffffffffffffff16815260200190815260200160002060000160006101000a81548173ffffffffffffffffffffffffffffffffffffffff021916908373ffffffffffffffffffffffffffffffffffffffff160217905550806000803373ffffffffffffffffffffffffffffffffffffffff1673ffffffffffffffffffffffffffffffffffffffff1681526020019081526020016000206004016000828254039250508190555080600d600082825401925050819055508091505090565b60145481565b6000600a54905090565b60165481565b6000600c54905090565b60008060029050336000803373ffffffffffffffffffffffffffffffffffffffff1673ffffffffffffffffffffffffffffffffffffffff16815260200190815260200160002060000160006101000a81548173ffffffffffffffffffffffffffffffffffffffff021916908373ffffffffffffffffffffffffffffffffffffffff160217905550806000803373ffffffffffffffffffffffffffffffffffffffff1673ffffffffffffffffffffffffffffffffffffffff1681526020019081526020016000206002016000828254039250508190555080600b600082825401925050819055508091505090565b60006020528060005260406000206000915090508060000160009054906101000a900473ffffffffffffffffffffffffffffffffffffffff16908060010154908060020154908060030154908060040154908060050154908060060154908060070154905088565b6000600f54905090565b60008060029050336000803373ffffffffffffffffffffffffffffffffffffffff1673ffffffffffffffffffffffffffffffffffffffff16815260200190815260200160002060000160006101000a81548173ffffffffffffffffffffffffffffffffffffffff021916908373ffffffffffffffffffffffffffffffffffffffff160217905550806000803373ffffffffffffffffffffffffffffffffffffffff1673ffffffffffffffffffffffffffffffffffffffff16815260200190815260200160002060070160008282540392505081905550806010600082825401925050819055508091505090565b600080601554348115156141b257fe5b049050600e5481111515156141c657600080fd5b336000803373ffffffffffffffffffffffffffffffffffffffff1673ffffffffffffffffffffffffffffffffffffffff16815260200190815260200160002060000160006101000a81548173ffffffffffffffffffffffffffffffffffffffff021916908373ffffffffffffffffffffffffffffffffffffffff160217905550806000803373ffffffffffffffffffffffffffffffffffffffff1673ffffffffffffffffffffffffffffffffffffffff1681526020019081526020016000206005016000828254019250508190555080600e600082825403925050819055508091505090565b60008060039050336000803373ffffffffffffffffffffffffffffffffffffffff1673ffffffffffffffffffffffffffffffffffffffff16815260200190815260200160002060000160006101000a81548173ffffffffffffffffffffffffffffffffffffffff021916908373ffffffffffffffffffffffffffffffffffffffff160217905550806000803373ffffffffffffffffffffffffffffffffffffffff1673ffffffffffffffffffffffffffffffffffffffff1681526020019081526020016000206004016000828254039250508190555080600d600082825401925050819055508091505090565b60075481565b60095481565b600a5481565b60008060059050336000803373ffffffffffffffffffffffffffffffffffffffff1673ffffffffffffffffffffffffffffffffffffffff16815260200190815260200160002060000160006101000a81548173ffffffffffffffffffffffffffffffffffffffff021916908373ffffffffffffffffffffffffffffffffffffffff160217905550806000803373ffffffffffffffffffffffffffffffffffffffff1673ffffffffffffffffffffffffffffffffffffffff1681526020019081526020016000206003016000828254039250508190555080600c600082825401925050819055508091505090565b600080601654348115156144a857fe5b049050600f5481111515156144bc57600080fd5b336000803373ffffffffffffffffffffffffffffffffffffffff1673ffffffffffffffffffffffffffffffffffffffff16815260200190815260200160002060000160006101000a81548173ffffffffffffffffffffffffffffffffffffffff021916908373ffffffffffffffffffffffffffffffffffffffff160217905550806000803373ffffffffffffffffffffffffffffffffffffffff1673ffffffffffffffffffffffffffffffffffffffff1681526020019081526020016000206006016000828254019250508190555080600f600082825403925050819055508091505090565b600080600090505b6002805490508110156145f55782600019166002828154811015156145cb57fe5b90600052602060002001546000191614156145e857809150614619565b80806001019150506145aa565b7fffffffffffffffffffffffffffffffffffffffffffffffffffffffffffffffff91505b50919050565b60008060049050336000803373ffffffffffffffffffffffffffffffffffffffff1673ffffffffffffffffffffffffffffffffffffffff16815260200190815260200160002060000160006101000a81548173ffffffffffffffffffffffffffffffffffffffff021916908373ffffffffffffffffffffffffffffffffffffffff160217905550806000803373ffffffffffffffffffffffffffffffffffffffff1673ffffffffffffffffffffffffffffffffffffffff1681526020019081526020016000206006016000828254039250508190555080600f600082825401925050819055508091505090565b600c5481565b60008060019050336000803373ffffffffffffffffffffffffffffffffffffffff1673ffffffffffffffffffffffffffffffffffffffff16815260200190815260200160002060000160006101000a81548173ffffffffffffffffffffffffffffffffffffffff021916908373ffffffffffffffffffffffffffffffffffffffff160217905550806000803373ffffffffffffffffffffffffffffffffffffffff1673ffffffffffffffffffffffffffffffffffffffff1681526020019081526020016000206003016000828254039250508190555080600c600082825401925050819055508091505090565b60008060019050336000803373ffffffffffffffffffffffffffffffffffffffff1673ffffffffffffffffffffffffffffffffffffffff16815260200190815260200160002060000160006101000a81548173ffffffffffffffffffffffffffffffffffffffff021916908373ffffffffffffffffffffffffffffffffffffffff160217905550806000803373ffffffffffffffffffffffffffffffffffffffff1673ffffffffffffffffffffffffffffffffffffffff1681526020019081526020016000206004016000828254039250508190555080600d600082825401925050819055508091505090565b6000806000809150600090505b835181101561492b57838181518110151561491057fe5b906020019060200201518201915080806001019150506148f9565b81925050509190505600a165627a7a723058202e85cb72f1df9f49b02194c7405b0da4dca1e2b6f7c180c8842909539536953a0029",
  "source": "pragma solidity ^0.4.18;\r\n\r\ncontract Voting {\r\n\r\n struct voter {\r\n  address voterAddress;\r\n  uint tokensBought;\r\n  uint tokensBought2;\r\n  uint tokensBought3;\r\n  uint tokensBought4;\r\n  uint tokensBought5;\r\n  uint tokensBought6;\r\n  uint tokensBought7;\r\n  uint[] tokensUsedPerCandidate;\r\n }\r\n\r\n mapping (address => voter) public voterInfo;\r\n\r\n mapping (bytes32 => uint) public votesReceived;\r\n\r\n bytes32[] public candidateList;\r\n\r\n uint public totalTokens;\r\n uint public totalTokens2;\r\n uint public totalTokens3;\r\n uint public totalTokens4;\r\n uint public totalTokens5;\r\n uint public totalTokens6;\r\n uint public totalTokens7;\r\n uint public balanceTokens;\r\n uint public balanceTokens2;\r\n uint public balanceTokens3;\r\n uint public balanceTokens4;\r\n uint public balanceTokens5;\r\n uint public balanceTokens6;\r\n uint public balanceTokens7;\r\n uint public tokenPrice;\r\n uint public tokenPrice2;\r\n uint public tokenPrice3;\r\n uint public tokenPrice4;\r\n uint public tokenPrice5;\r\n uint public tokenPrice6;\r\n uint public tokenPrice7;\r\n\r\n\r\n constructor (uint tokens, uint tokens2,uint tokens3,uint tokens4,uint tokens5,uint tokens6,uint tokens7,uint pricePerToken,uint pricePerToken2,uint pricePerToken3,uint pricePerToken4 ,uint pricePerToken5,uint pricePerToken6,uint pricePerToken7, bytes32[] candidateNames) public {\r\n  candidateList = candidateNames;\r\n  totalTokens = tokens;\r\n  totalTokens2 = tokens2;\r\n  totalTokens3 = tokens3;\r\n  totalTokens4 = tokens4;\r\n  totalTokens5 = tokens5;\r\n  totalTokens6 = tokens6;\r\n  totalTokens7 = tokens7;\r\n  balanceTokens = tokens;\r\n  balanceTokens2 = tokens2;\r\n  balanceTokens3 = tokens3;\r\n  balanceTokens4 = tokens4;\r\n  balanceTokens5 = tokens5;\r\n  balanceTokens6 = tokens6;\r\n  balanceTokens7 = tokens7;\r\n  tokenPrice = pricePerToken;\r\n  tokenPrice2 = pricePerToken2;\r\n  tokenPrice3 = pricePerToken3;\r\n  tokenPrice4 = pricePerToken4;\r\n  tokenPrice5 = pricePerToken5;\r\n  tokenPrice6 = pricePerToken6;\r\n  tokenPrice7 = pricePerToken7;\r\n }\r\n\r\n\r\n function buy() payable public returns (uint) {\r\n  uint tokensToBuy = msg.value / tokenPrice;\r\n  require(tokensToBuy <= balanceTokens);\r\n  voterInfo[msg.sender].voterAddress = msg.sender;\r\n  voterInfo[msg.sender].tokensBought += tokensToBuy;\r\n  balanceTokens -= tokensToBuy;\r\n  return tokensToBuy;\r\n }\r\n\r\n\r\n  function buy2() payable public returns (uint) {\r\n  uint tokensToBuy2 = msg.value / tokenPrice2;\r\n  require(tokensToBuy2 <= balanceTokens2);\r\n  voterInfo[msg.sender].voterAddress = msg.sender;\r\n  voterInfo[msg.sender].tokensBought2 += tokensToBuy2;\r\n  balanceTokens2 -= tokensToBuy2;\r\n  return tokensToBuy2;\r\n }\r\n\r\n  function buy3() payable public returns (uint) {\r\n  uint tokensToBuy3 = msg.value / tokenPrice3;\r\n  require(tokensToBuy3 <= balanceTokens3);\r\n  voterInfo[msg.sender].voterAddress = msg.sender;\r\n  voterInfo[msg.sender].tokensBought3 += tokensToBuy3;\r\n  balanceTokens3 -= tokensToBuy3;\r\n  return tokensToBuy3;\r\n }\r\n\r\n  function buy4() payable public returns (uint) {\r\n  uint tokensToBuy4 = msg.value / tokenPrice4;\r\n  require(tokensToBuy4 <= balanceTokens4);\r\n  voterInfo[msg.sender].voterAddress = msg.sender;\r\n  voterInfo[msg.sender].tokensBought4 += tokensToBuy4;\r\n  balanceTokens4 -= tokensToBuy4;\r\n  return tokensToBuy4;\r\n }\r\n\r\n   function buy5() payable public returns (uint) {\r\n  uint tokensToBuy5 = msg.value / tokenPrice5;\r\n  require(tokensToBuy5 <= balanceTokens5);\r\n  voterInfo[msg.sender].voterAddress = msg.sender;\r\n  voterInfo[msg.sender].tokensBought5 += tokensToBuy5;\r\n  balanceTokens5 -= tokensToBuy5;\r\n  return tokensToBuy5;\r\n }\r\n\r\n   function buy6() payable public returns (uint) {\r\n  uint tokensToBuy6 = msg.value / tokenPrice6;\r\n  require(tokensToBuy6 <= balanceTokens6);\r\n  voterInfo[msg.sender].voterAddress = msg.sender;\r\n  voterInfo[msg.sender].tokensBought6 += tokensToBuy6;\r\n  balanceTokens6 -= tokensToBuy6;\r\n  return tokensToBuy6;\r\n }\r\n\r\n   function buy7() payable public returns (uint) {\r\n  uint tokensToBuy7 = msg.value / tokenPrice7;\r\n  require(tokensToBuy7 <= balanceTokens7);\r\n  voterInfo[msg.sender].voterAddress = msg.sender;\r\n  voterInfo[msg.sender].tokensBought7 += tokensToBuy7;\r\n  balanceTokens7 -= tokensToBuy7;\r\n  return tokensToBuy7;\r\n }\r\n\r\n function totalVotesFor(bytes32 candidate) view public returns (uint) {\r\n  return votesReceived[candidate];\r\n }\r\n\r\n function voteForCandidate(bytes32 candidate, uint votesInTokens) public {\r\n  uint index = indexOfCandidate(candidate);\r\n  require(index != uint(-1));\r\n\r\n  if (voterInfo[msg.sender].tokensUsedPerCandidate.length == 0) {\r\n   for(uint i = 0; i < candidateList.length; i++) {\r\n    voterInfo[msg.sender].tokensUsedPerCandidate.push(0);\r\n   }\r\n  }\r\n\r\n  uint availableTokens = voterInfo[msg.sender].tokensBought - totalTokensUsed(voterInfo[msg.sender].tokensUsedPerCandidate);\r\n  require (availableTokens >= votesInTokens);\r\n\r\n  votesReceived[candidate] += votesInTokens;\r\n  voterInfo[msg.sender].tokensUsedPerCandidate[index] += votesInTokens;\r\n }\r\n\r\n function totalTokensUsed(uint[] _tokensUsedPerCandidate) private pure returns (uint) {\r\n  uint totalUsedTokens = 0;\r\n  for(uint i = 0; i < _tokensUsedPerCandidate.length; i++) {\r\n   totalUsedTokens += _tokensUsedPerCandidate[i];\r\n  }\r\n  return totalUsedTokens;\r\n }\r\n\r\n function indexOfCandidate(bytes32 candidate) view public returns (uint) {\r\n  for(uint i = 0; i < candidateList.length; i++) {\r\n   if (candidateList[i] == candidate) {\r\n    return i;\r\n   }\r\n  }\r\n  return uint(-1);\r\n }\r\n\r\n\r\n  function returnbuy() payable public returns (uint) {\r\n  uint tokensToReturn = 1;\r\n  voterInfo[msg.sender].voterAddress = msg.sender;\r\n  voterInfo[msg.sender].tokensBought -= tokensToReturn;\r\n  balanceTokens += tokensToReturn;\r\n  return tokensToReturn;\r\n }\r\n\r\n   function returnbuy2() payable public returns (uint) {\r\n  uint tokensToReturn = 2;\r\n  voterInfo[msg.sender].voterAddress = msg.sender;\r\n  voterInfo[msg.sender].tokensBought -= tokensToReturn;\r\n  balanceTokens += tokensToReturn;\r\n  return tokensToReturn;\r\n }\r\n\r\n  function returnbuy3() payable public returns (uint) {\r\n  uint tokensToReturn = 3;\r\n  voterInfo[msg.sender].voterAddress = msg.sender;\r\n  voterInfo[msg.sender].tokensBought -= tokensToReturn;\r\n  balanceTokens += tokensToReturn;\r\n  return tokensToReturn;\r\n }\r\n\r\n   function returnbuy4() payable public returns (uint) {\r\n  uint tokensToReturn = 4;\r\n  voterInfo[msg.sender].voterAddress = msg.sender;\r\n  voterInfo[msg.sender].tokensBought -= tokensToReturn;\r\n  balanceTokens += tokensToReturn;\r\n  return tokensToReturn;\r\n }\r\n\r\n    function returnbuy5() payable public returns (uint) {\r\n  uint tokensToReturn = 5;\r\n  voterInfo[msg.sender].voterAddress = msg.sender;\r\n  voterInfo[msg.sender].tokensBought -= tokensToReturn;\r\n  balanceTokens += tokensToReturn;\r\n  return tokensToReturn;\r\n }\r\n\r\n    function returnbuy6() payable public returns (uint) {\r\n  uint tokensToReturn = 6;\r\n  voterInfo[msg.sender].voterAddress = msg.sender;\r\n  voterInfo[msg.sender].tokensBought -= tokensToReturn;\r\n  balanceTokens += tokensToReturn;\r\n  return tokensToReturn;\r\n }\r\n\r\n     function returnbuy7() payable public returns (uint) {\r\n  uint tokensToReturn2 = 1;\r\n  voterInfo[msg.sender].voterAddress = msg.sender;\r\n  voterInfo[msg.sender].tokensBought2 -= tokensToReturn2;\r\n  balanceTokens2 += tokensToReturn2;\r\n  return tokensToReturn2;\r\n }\r\n\r\n     function returnbuy8() payable public returns (uint) {\r\n  uint tokensToReturn2 = 2;\r\n  voterInfo[msg.sender].voterAddress = msg.sender;\r\n  voterInfo[msg.sender].tokensBought2 -= tokensToReturn2;\r\n  balanceTokens2 += tokensToReturn2;\r\n  return tokensToReturn2;\r\n }\r\n\r\n     function returnbuy9() payable public returns (uint) {\r\n  uint tokensToReturn2 = 3;\r\n  voterInfo[msg.sender].voterAddress = msg.sender;\r\n  voterInfo[msg.sender].tokensBought2 -= tokensToReturn2;\r\n  balanceTokens2 += tokensToReturn2;\r\n  return tokensToReturn2;\r\n }\r\n\r\n     function returnbuy10() payable public returns (uint) {\r\n  uint tokensToReturn2 = 4;\r\n  voterInfo[msg.sender].voterAddress = msg.sender;\r\n  voterInfo[msg.sender].tokensBought2 -= tokensToReturn2;\r\n  balanceTokens2 += tokensToReturn2;\r\n  return tokensToReturn2;\r\n }\r\n\r\n     function returnbuy11() payable public returns (uint) {\r\n  uint tokensToReturn2 = 5;\r\n  voterInfo[msg.sender].voterAddress = msg.sender;\r\n  voterInfo[msg.sender].tokensBought2 -= tokensToReturn2;\r\n  balanceTokens2 += tokensToReturn2;\r\n  return tokensToReturn2;\r\n }\r\n\r\n     function returnbuy12() payable public returns (uint) {\r\n  uint tokensToReturn2 = 6;\r\n  voterInfo[msg.sender].voterAddress = msg.sender;\r\n  voterInfo[msg.sender].tokensBought2 -= tokensToReturn2;\r\n  balanceTokens2 += tokensToReturn2;\r\n  return tokensToReturn2;\r\n }\r\n\r\n     function returnbuy13() payable public returns (uint) {\r\n  uint tokensToReturn3 = 1;\r\n  voterInfo[msg.sender].voterAddress = msg.sender;\r\n  voterInfo[msg.sender].tokensBought3 -= tokensToReturn3;\r\n  balanceTokens3 += tokensToReturn3;\r\n  return tokensToReturn3;\r\n }\r\n\r\n      function returnbuy14() payable public returns (uint) {\r\n  uint tokensToReturn3 = 2;\r\n  voterInfo[msg.sender].voterAddress = msg.sender;\r\n  voterInfo[msg.sender].tokensBought3 -= tokensToReturn3;\r\n  balanceTokens3 += tokensToReturn3;\r\n  return tokensToReturn3;\r\n }\r\n\r\n     function returnbuy15() payable public returns (uint) {\r\n  uint tokensToReturn3 = 3;\r\n  voterInfo[msg.sender].voterAddress = msg.sender;\r\n  voterInfo[msg.sender].tokensBought3 -= tokensToReturn3;\r\n  balanceTokens3 += tokensToReturn3;\r\n  return tokensToReturn3;\r\n }\r\n\r\n      function returnbuy16() payable public returns (uint) {\r\n  uint tokensToReturn3 = 4;\r\n  voterInfo[msg.sender].voterAddress = msg.sender;\r\n  voterInfo[msg.sender].tokensBought3 -= tokensToReturn3;\r\n  balanceTokens3 += tokensToReturn3;\r\n  return tokensToReturn3;\r\n }\r\n\r\n      function returnbuy17() payable public returns (uint) {\r\n  uint tokensToReturn3 = 5;\r\n  voterInfo[msg.sender].voterAddress = msg.sender;\r\n  voterInfo[msg.sender].tokensBought3 -= tokensToReturn3;\r\n  balanceTokens3 += tokensToReturn3;\r\n  return tokensToReturn3;\r\n }\r\n\r\n      function returnbuy18() payable public returns (uint) {\r\n  uint tokensToReturn3 = 6;\r\n  voterInfo[msg.sender].voterAddress = msg.sender;\r\n  voterInfo[msg.sender].tokensBought3 -= tokensToReturn3;\r\n  balanceTokens3 += tokensToReturn3;\r\n  return tokensToReturn3;\r\n }\r\n\r\n      function returnbuy19() payable public returns (uint) {\r\n  uint tokensToReturn4 = 1;\r\n  voterInfo[msg.sender].voterAddress = msg.sender;\r\n  voterInfo[msg.sender].tokensBought4 -= tokensToReturn4;\r\n  balanceTokens4 += tokensToReturn4;\r\n  return tokensToReturn4;\r\n }\r\n\r\n       function returnbuy20() payable public returns (uint) {\r\n  uint tokensToReturn4 = 2;\r\n  voterInfo[msg.sender].voterAddress = msg.sender;\r\n  voterInfo[msg.sender].tokensBought4 -= tokensToReturn4;\r\n  balanceTokens4 += tokensToReturn4;\r\n  return tokensToReturn4;\r\n }\r\n\r\n       function returnbuy21() payable public returns (uint) {\r\n  uint tokensToReturn4 = 3;\r\n  voterInfo[msg.sender].voterAddress = msg.sender;\r\n  voterInfo[msg.sender].tokensBought4 -= tokensToReturn4;\r\n  balanceTokens4 += tokensToReturn4;\r\n  return tokensToReturn4;\r\n }\r\n\r\n       function returnbuy22() payable public returns (uint) {\r\n  uint tokensToReturn4 = 4;\r\n  voterInfo[msg.sender].voterAddress = msg.sender;\r\n  voterInfo[msg.sender].tokensBought4 -= tokensToReturn4;\r\n  balanceTokens4 += tokensToReturn4;\r\n  return tokensToReturn4;\r\n }\r\n\r\n       function returnbuy23() payable public returns (uint) {\r\n  uint tokensToReturn4 = 5;\r\n  voterInfo[msg.sender].voterAddress = msg.sender;\r\n  voterInfo[msg.sender].tokensBought4 -= tokensToReturn4;\r\n  balanceTokens4 += tokensToReturn4;\r\n  return tokensToReturn4;\r\n }\r\n\r\n       function returnbuy24() payable public returns (uint) {\r\n  uint tokensToReturn4 = 6;\r\n  voterInfo[msg.sender].voterAddress = msg.sender;\r\n  voterInfo[msg.sender].tokensBought4 -= tokensToReturn4;\r\n  balanceTokens4 += tokensToReturn4;\r\n  return tokensToReturn4;\r\n }\r\n\r\n       function returnbuy25() payable public returns (uint) {\r\n  uint tokensToReturn5 = 1;\r\n  voterInfo[msg.sender].voterAddress = msg.sender;\r\n  voterInfo[msg.sender].tokensBought5 -= tokensToReturn5;\r\n  balanceTokens5 += tokensToReturn5;\r\n  return tokensToReturn5;\r\n }\r\n\r\n       function returnbuy26() payable public returns (uint) {\r\n  uint tokensToReturn5 = 2;\r\n  voterInfo[msg.sender].voterAddress = msg.sender;\r\n  voterInfo[msg.sender].tokensBought5 -= tokensToReturn5;\r\n  balanceTokens5 += tokensToReturn5;\r\n  return tokensToReturn5;\r\n }\r\n\r\n        function returnbuy27() payable public returns (uint) {\r\n  uint tokensToReturn5 = 3;\r\n  voterInfo[msg.sender].voterAddress = msg.sender;\r\n  voterInfo[msg.sender].tokensBought5 -= tokensToReturn5;\r\n  balanceTokens5 += tokensToReturn5;\r\n  return tokensToReturn5;\r\n }\r\n\r\n        function returnbuy28() payable public returns (uint) {\r\n  uint tokensToReturn5 = 4;\r\n  voterInfo[msg.sender].voterAddress = msg.sender;\r\n  voterInfo[msg.sender].tokensBought5 -= tokensToReturn5;\r\n  balanceTokens5 += tokensToReturn5;\r\n  return tokensToReturn5;\r\n }\r\n\r\n        function returnbuy29() payable public returns (uint) {\r\n  uint tokensToReturn5 = 5;\r\n  voterInfo[msg.sender].voterAddress = msg.sender;\r\n  voterInfo[msg.sender].tokensBought5 -= tokensToReturn5;\r\n  balanceTokens5 += tokensToReturn5;\r\n  return tokensToReturn5;\r\n }\r\n\r\n        function returnbuy30() payable public returns (uint) {\r\n  uint tokensToReturn5 = 6;\r\n  voterInfo[msg.sender].voterAddress = msg.sender;\r\n  voterInfo[msg.sender].tokensBought5 -= tokensToReturn5;\r\n  balanceTokens5 += tokensToReturn5;\r\n  return tokensToReturn5;\r\n }\r\n\r\n        function returnbuy31() payable public returns (uint) {\r\n  uint tokensToReturn6 = 1;\r\n  voterInfo[msg.sender].voterAddress = msg.sender;\r\n  voterInfo[msg.sender].tokensBought6 -= tokensToReturn6;\r\n  balanceTokens6 += tokensToReturn6;\r\n  return tokensToReturn6;\r\n }\r\n\r\n         function returnbuy32() payable public returns (uint) {\r\n  uint tokensToReturn6 = 2;\r\n  voterInfo[msg.sender].voterAddress = msg.sender;\r\n  voterInfo[msg.sender].tokensBought6 -= tokensToReturn6;\r\n  balanceTokens6 += tokensToReturn6;\r\n  return tokensToReturn6;\r\n }\r\n\r\n         function returnbuy33() payable public returns (uint) {\r\n  uint tokensToReturn6 = 3;\r\n  voterInfo[msg.sender].voterAddress = msg.sender;\r\n  voterInfo[msg.sender].tokensBought6 -= tokensToReturn6;\r\n  balanceTokens6 += tokensToReturn6;\r\n  return tokensToReturn6;\r\n }\r\n\r\n        function returnbuy34() payable public returns (uint) {\r\n  uint tokensToReturn6 = 4;\r\n  voterInfo[msg.sender].voterAddress = msg.sender;\r\n  voterInfo[msg.sender].tokensBought6 -= tokensToReturn6;\r\n  balanceTokens6 += tokensToReturn6;\r\n  return tokensToReturn6;\r\n }\r\n\r\n\r\n        function returnbuy35() payable public returns (uint) {\r\n  uint tokensToReturn6 = 5;\r\n  voterInfo[msg.sender].voterAddress = msg.sender;\r\n  voterInfo[msg.sender].tokensBought6 -= tokensToReturn6;\r\n  balanceTokens6 += tokensToReturn6;\r\n  return tokensToReturn6;\r\n }\r\n\r\n         function returnbuy36() payable public returns (uint) {\r\n  uint tokensToReturn6 = 6;\r\n  voterInfo[msg.sender].voterAddress = msg.sender;\r\n  voterInfo[msg.sender].tokensBought6 -= tokensToReturn6;\r\n  balanceTokens6 += tokensToReturn6;\r\n  return tokensToReturn6;\r\n }\r\n\r\n         function returnbuy37() payable public returns (uint) {\r\n  uint tokensToReturn7 = 1;\r\n  voterInfo[msg.sender].voterAddress = msg.sender;\r\n  voterInfo[msg.sender].tokensBought7 -= tokensToReturn7;\r\n  balanceTokens7 += tokensToReturn7;\r\n  return tokensToReturn7;\r\n }\r\n\r\n         function returnbuy38() payable public returns (uint) {\r\n  uint tokensToReturn7 = 2;\r\n  voterInfo[msg.sender].voterAddress = msg.sender;\r\n  voterInfo[msg.sender].tokensBought7 -= tokensToReturn7;\r\n  balanceTokens7 += tokensToReturn7;\r\n  return tokensToReturn7;\r\n } \r\n\r\n          function returnbuy39() payable public returns (uint) {\r\n  uint tokensToReturn7 = 3;\r\n  voterInfo[msg.sender].voterAddress = msg.sender;\r\n  voterInfo[msg.sender].tokensBought7 -= tokensToReturn7;\r\n  balanceTokens7 += tokensToReturn7;\r\n  return tokensToReturn7;\r\n }\r\n\r\n          function returnbuy40() payable public returns (uint) {\r\n  uint tokensToReturn7 = 4;\r\n  voterInfo[msg.sender].voterAddress = msg.sender;\r\n  voterInfo[msg.sender].tokensBought7 -= tokensToReturn7;\r\n  balanceTokens7 += tokensToReturn7;\r\n  return tokensToReturn7;\r\n }\r\n\r\n          function returnbuy41() payable public returns (uint) {\r\n  uint tokensToReturn7 = 5;\r\n  voterInfo[msg.sender].voterAddress = msg.sender;\r\n  voterInfo[msg.sender].tokensBought7 -= tokensToReturn7;\r\n  balanceTokens7 += tokensToReturn7;\r\n  return tokensToReturn7;\r\n }\r\n\r\n          function returnbuy42() payable public returns (uint) {\r\n  uint tokensToReturn7 = 6;\r\n  voterInfo[msg.sender].voterAddress = msg.sender;\r\n  voterInfo[msg.sender].tokensBought7 -= tokensToReturn7;\r\n  balanceTokens7 += tokensToReturn7;\r\n  return tokensToReturn7;\r\n }\r\n\r\n function tokensRemaining() view public returns (uint) {\r\n  return  balanceTokens;\r\n }\r\n\r\n  function tokensRemaining2() view public returns (uint) {\r\n  return  balanceTokens2;\r\n }\r\n\r\n  function tokensRemaining3() view public returns (uint) {\r\n  return  balanceTokens3;\r\n }\r\n\r\n  function tokensRemaining4() view public returns (uint) {\r\n  return  balanceTokens4;\r\n }\r\n\r\n   function tokensRemaining5() view public returns (uint) {\r\n  return  balanceTokens5;\r\n }\r\n\r\n   function tokensRemaining6() view public returns (uint) {\r\n  return  balanceTokens6;\r\n }\r\n\r\n   function tokensRemaining7() view public returns (uint) {\r\n  return  balanceTokens7;\r\n }\r\n\r\n function tokensSold() view public returns (uint) {\r\n  return totalTokens - balanceTokens;\r\n }\r\n\r\n function tokensSold2() view public returns (uint) {\r\n  return totalTokens2 - balanceTokens2;\r\n }\r\n\r\n\r\n function tokensSold3() view public returns (uint) {\r\n  return totalTokens3 - balanceTokens3;\r\n }\r\n\r\n function tokensSold4() view public returns (uint) {\r\n  return totalTokens4 - balanceTokens4;\r\n }\r\n\r\n  function tokensSold5() view public returns (uint) {\r\n  return totalTokens5 - balanceTokens5;\r\n }\r\n\r\n  function tokensSold6() view public returns (uint) {\r\n  return totalTokens6 - balanceTokens6;\r\n }\r\n\r\n  function tokensSold7() view public returns (uint) {\r\n  return totalTokens7 - balanceTokens7;\r\n }\r\n\r\n function voterDetails(address user) view public returns (uint, uint, uint,uint,uint,uint,uint) {\r\n  return (voterInfo[user].tokensBought, voterInfo[user].tokensBought2, voterInfo[user].tokensBought3, voterInfo[user].tokensBought4,voterInfo[user].tokensBought5,voterInfo[user].tokensBought6,voterInfo[user].tokensBought7);\r\n }\r\n\r\n function transferTo(address account) public {\r\n  account.transfer(address(this).balance);\r\n }\r\n\r\n function allCandidates() view public returns (bytes32[]) {\r\n  return candidateList;\r\n }\r\n}\r\n",
  "sourcePath": "C:\\Users\\USER\\ticket-test.ver5\\contracts\\Voting.sol",
  "compiler": {
    "name": "solc",
    "version": "0.4.24+commit.e67f0147.Emscripten.clang"
  },
  "schemaVersion": "2.0.1",
  "updatedAt": "2018-12-06T15:49:01.978Z"
}