{
  "contractName": "Voting",
  "abi": [
    {
      "constant": true,
      "inputs": [],
      "name": "balanceTokens2",
      "outputs": [
        {
          "name": "",
          "type": "uint256"
        }
      ],
      "payable": false,
      "stateMutability": "view",
      "type": "function"
    },
    {
      "constant": true,
      "inputs": [],
      "name": "tokenPrice3",
      "outputs": [
        {
          "name": "",
          "type": "uint256"
        }
      ],
      "payable": false,
      "stateMutability": "view",
      "type": "function"
    },
    {
      "constant": true,
      "inputs": [],
      "name": "totalTokens3",
      "outputs": [
        {
          "name": "",
          "type": "uint256"
        }
      ],
      "payable": false,
      "stateMutability": "view",
      "type": "function"
    },
    {
      "constant": true,
      "inputs": [
        {
          "name": "",
          "type": "bytes32"
        }
      ],
      "name": "votesReceived",
      "outputs": [
        {
          "name": "",
          "type": "uint256"
        }
      ],
      "payable": false,
      "stateMutability": "view",
      "type": "function"
    },
    {
      "constant": true,
      "inputs": [],
      "name": "tokenPrice2",
      "outputs": [
        {
          "name": "",
          "type": "uint256"
        }
      ],
      "payable": false,
      "stateMutability": "view",
      "type": "function"
    },
    {
      "constant": true,
      "inputs": [],
      "name": "totalTokens",
      "outputs": [
        {
          "name": "",
          "type": "uint256"
        }
      ],
      "payable": false,
      "stateMutability": "view",
      "type": "function"
    },
    {
      "constant": true,
      "inputs": [],
      "name": "tokenPrice",
      "outputs": [
        {
          "name": "",
          "type": "uint256"
        }
      ],
      "payable": false,
      "stateMutability": "view",
      "type": "function"
    },
    {
      "constant": true,
      "inputs": [],
      "name": "totalTokens2",
      "outputs": [
        {
          "name": "",
          "type": "uint256"
        }
      ],
      "payable": false,
      "stateMutability": "view",
      "type": "function"
    },
    {
      "constant": true,
      "inputs": [
        {
          "name": "",
          "type": "uint256"
        }
      ],
      "name": "candidateList",
      "outputs": [
        {
          "name": "",
          "type": "bytes32"
        }
      ],
      "payable": false,
      "stateMutability": "view",
      "type": "function"
    },
    {
      "constant": true,
      "inputs": [
        {
          "name": "",
          "type": "address"
        }
      ],
      "name": "voterInfo",
      "outputs": [
        {
          "name": "voterAddress",
          "type": "address"
        },
        {
          "name": "tokensBought",
          "type": "uint256"
        },
        {
          "name": "tokensBought2",
          "type": "uint256"
        },
        {
          "name": "tokensBought3",
          "type": "uint256"
        }
      ],
      "payable": false,
      "stateMutability": "view",
      "type": "function"
    },
    {
      "constant": true,
      "inputs": [],
      "name": "balanceTokens",
      "outputs": [
        {
          "name": "",
          "type": "uint256"
        }
      ],
      "payable": false,
      "stateMutability": "view",
      "type": "function"
    },
    {
      "constant": true,
      "inputs": [],
      "name": "balanceTokens3",
      "outputs": [
        {
          "name": "",
          "type": "uint256"
        }
      ],
      "payable": false,
      "stateMutability": "view",
      "type": "function"
    },
    {
      "inputs": [
        {
          "name": "tokens",
          "type": "uint256"
        },
        {
          "name": "tokens2",
          "type": "uint256"
        },
        {
          "name": "tokens3",
          "type": "uint256"
        },
        {
          "name": "pricePerToken",
          "type": "uint256"
        },
        {
          "name": "pricePerToken2",
          "type": "uint256"
        },
        {
          "name": "pricePerToken3",
          "type": "uint256"
        },
        {
          "name": "candidateNames",
          "type": "bytes32[]"
        }
      ],
      "payable": false,
      "stateMutability": "nonpayable",
      "type": "constructor"
    },
    {
      "constant": false,
      "inputs": [],
      "name": "buy",
      "outputs": [
        {
          "name": "",
          "type": "uint256"
        }
      ],
      "payable": true,
      "stateMutability": "payable",
      "type": "function"
    },
    {
      "constant": false,
      "inputs": [],
      "name": "buy2",
      "outputs": [
        {
          "name": "",
          "type": "uint256"
        }
      ],
      "payable": true,
      "stateMutability": "payable",
      "type": "function"
    },
    {
      "constant": false,
      "inputs": [],
      "name": "buy3",
      "outputs": [
        {
          "name": "",
          "type": "uint256"
        }
      ],
      "payable": true,
      "stateMutability": "payable",
      "type": "function"
    },
    {
      "constant": true,
      "inputs": [
        {
          "name": "candidate",
          "type": "bytes32"
        }
      ],
      "name": "totalVotesFor",
      "outputs": [
        {
          "name": "",
          "type": "uint256"
        }
      ],
      "payable": false,
      "stateMutability": "view",
      "type": "function"
    },
    {
      "constant": false,
      "inputs": [
        {
          "name": "candidate",
          "type": "bytes32"
        },
        {
          "name": "votesInTokens",
          "type": "uint256"
        }
      ],
      "name": "voteForCandidate",
      "outputs": [],
      "payable": false,
      "stateMutability": "nonpayable",
      "type": "function"
    },
    {
      "constant": true,
      "inputs": [
        {
          "name": "candidate",
          "type": "bytes32"
        }
      ],
      "name": "indexOfCandidate",
      "outputs": [
        {
          "name": "",
          "type": "uint256"
        }
      ],
      "payable": false,
      "stateMutability": "view",
      "type": "function"
    },
    {
      "constant": false,
      "inputs": [],
      "name": "returnbuy",
      "outputs": [
        {
          "name": "",
          "type": "uint256"
        }
      ],
      "payable": true,
      "stateMutability": "payable",
      "type": "function"
    },
    {
      "constant": true,
      "inputs": [],
      "name": "tokensRemaining",
      "outputs": [
        {
          "name": "",
          "type": "uint256"
        }
      ],
      "payable": false,
      "stateMutability": "view",
      "type": "function"
    },
    {
      "constant": true,
      "inputs": [],
      "name": "tokensRemaining2",
      "outputs": [
        {
          "name": "",
          "type": "uint256"
        }
      ],
      "payable": false,
      "stateMutability": "view",
      "type": "function"
    },
    {
      "constant": true,
      "inputs": [],
      "name": "tokensRemaining3",
      "outputs": [
        {
          "name": "",
          "type": "uint256"
        }
      ],
      "payable": false,
      "stateMutability": "view",
      "type": "function"
    },
    {
      "constant": true,
      "inputs": [],
      "name": "tokensSold",
      "outputs": [
        {
          "name": "",
          "type": "uint256"
        }
      ],
      "payable": false,
      "stateMutability": "view",
      "type": "function"
    },
    {
      "constant": true,
      "inputs": [],
      "name": "tokensSold2",
      "outputs": [
        {
          "name": "",
          "type": "uint256"
        }
      ],
      "payable": false,
      "stateMutability": "view",
      "type": "function"
    },
    {
      "constant": true,
      "inputs": [],
      "name": "tokensSold3",
      "outputs": [
        {
          "name": "",
          "type": "uint256"
        }
      ],
      "payable": false,
      "stateMutability": "view",
      "type": "function"
    },
    {
      "constant": true,
      "inputs": [
        {
          "name": "user",
          "type": "address"
        }
      ],
      "name": "voterDetails",
      "outputs": [
        {
          "name": "",
          "type": "uint256"
        },
        {
          "name": "",
          "type": "uint256"
        },
        {
          "name": "",
          "type": "uint256"
        }
      ],
      "payable": false,
      "stateMutability": "view",
      "type": "function"
    },
    {
      "constant": false,
      "inputs": [
        {
          "name": "account",
          "type": "address"
        }
      ],
      "name": "transferTo",
      "outputs": [],
      "payable": false,
      "stateMutability": "nonpayable",
      "type": "function"
    },
    {
      "constant": true,
      "inputs": [],
      "name": "allCandidates",
      "outputs": [
        {
          "name": "",
          "type": "bytes32[]"
        }
      ],
      "payable": false,
      "stateMutability": "view",
      "type": "function"
    }
  ],
  "bytecode": "0x608060405234801561001057600080fd5b5060405161131d38038061131d8339810180604052810190808051906020019092919080519060200190929190805190602001909291908051906020019092919080519060200190929190805190602001909291908051820192919050505080600290805190602001906100859291906100d1565b508660038190555085600481905550846005819055508660068190555085600781905550846008819055508360098190555082600a8190555081600b8190555050505050505050610149565b828054828255906000526020600020908101928215610113579160200282015b828111156101125782518290600019169055916020019190600101906100f1565b5b5090506101209190610124565b5090565b61014691905b8082111561014257600081600090555060010161012a565b5090565b90565b6111c5806101586000396000f30060806040526004361061016a576000357c0100000000000000000000000000000000000000000000000000000000900463ffffffff16806310ed0f431461016f578063175bde941461019a57806320cd1a83146101c55780632f265cf7146101f057806338971993146102355780634ed0026814610260578063518ab2a81461028b5780635938750d146102b657806364d15dd51461031b5780636b2dc6b5146103465780637021939f146103815780637127beaa146103c65780637e1c0c09146103f15780637ff9b5961461041c57806381c407151461044757806386eac299146104b357806387c253ed146104d15780638fcf4a7f146104ef578063a03fa7e31461051a578063a6f2ae3a1461055d578063acb304441461057b578063b13c744b14610599578063c8b08125146105e2578063cd4574c61461060d578063cdf58d3514610638578063e4494a0f146106d0578063ecd098b0146106fb578063f6aac5e014610740575b600080fd5b34801561017b57600080fd5b5061018461076b565b6040518082815260200191505060405180910390f35b3480156101a657600080fd5b506101af610771565b6040518082815260200191505060405180910390f35b3480156101d157600080fd5b506101da610777565b6040518082815260200191505060405180910390f35b3480156101fc57600080fd5b5061021f6004803603810190808035600019169060200190929190505050610785565b6040518082815260200191505060405180910390f35b34801561024157600080fd5b5061024a6107aa565b6040518082815260200191505060405180910390f35b34801561026c57600080fd5b506102756107b8565b6040518082815260200191505060405180910390f35b34801561029757600080fd5b506102a06107be565b6040518082815260200191505060405180910390f35b3480156102c257600080fd5b506102f7600480360381019080803573ffffffffffffffffffffffffffffffffffffffff1690602001909291905050506107cc565b60405180848152602001838152602001828152602001935050505060405180910390f35b34801561032757600080fd5b506103306108a4565b6040518082815260200191505060405180910390f35b34801561035257600080fd5b5061037f6004803603810190808035600019169060200190929190803590602001909291905050506108ae565b005b34801561038d57600080fd5b506103b06004803603810190808035600019169060200190929190505050610b48565b6040518082815260200191505060405180910390f35b3480156103d257600080fd5b506103db610b60565b6040518082815260200191505060405180910390f35b3480156103fd57600080fd5b50610406610b66565b6040518082815260200191505060405180910390f35b34801561042857600080fd5b50610431610b6c565b6040518082815260200191505060405180910390f35b34801561045357600080fd5b5061045c610b72565b6040518080602001828103825283818151815260200191508051906020019060200280838360005b8381101561049f578082015181840152602081019050610484565b505050509050019250505060405180910390f35b6104bb610bce565b6040518082815260200191505060405180910390f35b6104d9610cd8565b6040518082815260200191505060405180910390f35b3480156104fb57600080fd5b50610504610dc5565b6040518082815260200191505060405180910390f35b34801561052657600080fd5b5061055b600480360381019080803573ffffffffffffffffffffffffffffffffffffffff169060200190929190505050610dcb565b005b610565610e2c565b6040518082815260200191505060405180910390f35b610583610f36565b6040518082815260200191505060405180910390f35b3480156105a557600080fd5b506105c460048036038101908080359060200190929190505050611040565b60405180826000191660001916815260200191505060405180910390f35b3480156105ee57600080fd5b506105f7611063565b6040518082815260200191505060405180910390f35b34801561061957600080fd5b5061062261106d565b6040518082815260200191505060405180910390f35b34801561064457600080fd5b50610679600480360381019080803573ffffffffffffffffffffffffffffffffffffffff169060200190929190505050611077565b604051808573ffffffffffffffffffffffffffffffffffffffff1673ffffffffffffffffffffffffffffffffffffffff16815260200184815260200183815260200182815260200194505050505060405180910390f35b3480156106dc57600080fd5b506106e56110c7565b6040518082815260200191505060405180910390f35b34801561070757600080fd5b5061072a60048036038101908080356000191690602001909291905050506110cd565b6040518082815260200191505060405180910390f35b34801561074c57600080fd5b5061075561114a565b6040518082815260200191505060405180910390f35b60075481565b600b5481565b600060085460055403905090565b6000600160008360001916600019168152602001908152602001600020549050919050565b600060075460045403905090565b60055481565b600060065460035403905090565b60008060008060008573ffffffffffffffffffffffffffffffffffffffff1673ffffffffffffffffffffffffffffffffffffffff168152602001908152602001600020600101546000808673ffffffffffffffffffffffffffffffffffffffff1673ffffffffffffffffffffffffffffffffffffffff168152602001908152602001600020600201546000808773ffffffffffffffffffffffffffffffffffffffff1673ffffffffffffffffffffffffffffffffffffffff168152602001908152602001600020600301549250925092509193909250565b6000600754905090565b60008060006108bc856110cd565b92507fffffffffffffffffffffffffffffffffffffffffffffffffffffffffffffffff83141515156108ed57600080fd5b60008060003373ffffffffffffffffffffffffffffffffffffffff1673ffffffffffffffffffffffffffffffffffffffff1681526020019081526020016000206004018054905014156109c657600091505b6002805490508210156109c5576000803373ffffffffffffffffffffffffffffffffffffffff1673ffffffffffffffffffffffffffffffffffffffff16815260200190815260200160002060040160009080600181540180825580915050906001820390600052602060002001600090919290919091505550818060010192505061093f565b5b610a5e6000803373ffffffffffffffffffffffffffffffffffffffff1673ffffffffffffffffffffffffffffffffffffffff168152602001908152602001600020600401805480602002602001604051908101604052809291908181526020018280548015610a5457602002820191906000526020600020905b815481526020019060010190808311610a40575b5050505050611150565b6000803373ffffffffffffffffffffffffffffffffffffffff1673ffffffffffffffffffffffffffffffffffffffff16815260200190815260200160002060010154039050838110151515610ab257600080fd5b8360016000876000191660001916815260200190815260200160002060008282540192505081905550836000803373ffffffffffffffffffffffffffffffffffffffff1673ffffffffffffffffffffffffffffffffffffffff16815260200190815260200160002060040184815481101515610b2a57fe5b90600052602060002001600082825401925050819055505050505050565b60016020528060005260406000206000915090505481565b600a5481565b60035481565b60095481565b60606002805480602002602001604051908101604052809291908181526020018280548015610bc457602002820191906000526020600020905b81546000191681526020019060010190808311610bac575b5050505050905090565b600080600a5434811515610bde57fe5b0490506007548111151515610bf257600080fd5b336000803373ffffffffffffffffffffffffffffffffffffffff1673ffffffffffffffffffffffffffffffffffffffff16815260200190815260200160002060000160006101000a81548173ffffffffffffffffffffffffffffffffffffffff021916908373ffffffffffffffffffffffffffffffffffffffff160217905550806000803373ffffffffffffffffffffffffffffffffffffffff1673ffffffffffffffffffffffffffffffffffffffff16815260200190815260200160002060020160008282540192505081905550806007600082825403925050819055508091505090565b60008060019050336000803373ffffffffffffffffffffffffffffffffffffffff1673ffffffffffffffffffffffffffffffffffffffff16815260200190815260200160002060000160006101000a81548173ffffffffffffffffffffffffffffffffffffffff021916908373ffffffffffffffffffffffffffffffffffffffff160217905550806000803373ffffffffffffffffffffffffffffffffffffffff1673ffffffffffffffffffffffffffffffffffffffff16815260200190815260200160002060010160008282540392505081905550806006600082825401925050819055508091505090565b60045481565b8073ffffffffffffffffffffffffffffffffffffffff166108fc3073ffffffffffffffffffffffffffffffffffffffff16319081150290604051600060405180830381858888f19350505050158015610e28573d6000803e3d6000fd5b5050565b60008060095434811515610e3c57fe5b0490506006548111151515610e5057600080fd5b336000803373ffffffffffffffffffffffffffffffffffffffff1673ffffffffffffffffffffffffffffffffffffffff16815260200190815260200160002060000160006101000a81548173ffffffffffffffffffffffffffffffffffffffff021916908373ffffffffffffffffffffffffffffffffffffffff160217905550806000803373ffffffffffffffffffffffffffffffffffffffff1673ffffffffffffffffffffffffffffffffffffffff16815260200190815260200160002060010160008282540192505081905550806006600082825403925050819055508091505090565b600080600b5434811515610f4657fe5b0490506008548111151515610f5a57600080fd5b336000803373ffffffffffffffffffffffffffffffffffffffff1673ffffffffffffffffffffffffffffffffffffffff16815260200190815260200160002060000160006101000a81548173ffffffffffffffffffffffffffffffffffffffff021916908373ffffffffffffffffffffffffffffffffffffffff160217905550806000803373ffffffffffffffffffffffffffffffffffffffff1673ffffffffffffffffffffffffffffffffffffffff16815260200190815260200160002060030160008282540192505081905550806008600082825403925050819055508091505090565b60028181548110151561104f57fe5b906000526020600020016000915090505481565b6000600654905090565b6000600854905090565b60006020528060005260406000206000915090508060000160009054906101000a900473ffffffffffffffffffffffffffffffffffffffff16908060010154908060020154908060030154905084565b60065481565b600080600090505b6002805490508110156111205782600019166002828154811015156110f657fe5b906000526020600020015460001916141561111357809150611144565b80806001019150506110d5565b7fffffffffffffffffffffffffffffffffffffffffffffffffffffffffffffffff91505b50919050565b60085481565b6000806000809150600090505b835181101561118f57838181518110151561117457fe5b9060200190602002015182019150808060010191505061115d565b81925050509190505600a165627a7a72305820de6fb176e7011485a206953def44b6280973ea92c76cff670d21ea367d08a7e10029",
  "source": "pragma solidity ^0.4.18;\r\n\r\ncontract Voting {\r\n\r\n struct voter {\r\n  address voterAddress;\r\n  uint tokensBought;\r\n  uint tokensBought2;\r\n  uint tokensBought3;\r\n  uint[] tokensUsedPerCandidate;\r\n }\r\n\r\n mapping (address => voter) public voterInfo;\r\n\r\n mapping (bytes32 => uint) public votesReceived;\r\n\r\n bytes32[] public candidateList;\r\n\r\n uint public totalTokens;\r\n uint public totalTokens2;\r\n uint public totalTokens3;\r\n uint public balanceTokens;\r\n uint public balanceTokens2;\r\n uint public balanceTokens3;\r\n uint public tokenPrice;\r\n uint public tokenPrice2;\r\n uint public tokenPrice3;\r\n\r\n constructor (uint tokens, uint tokens2,uint tokens3,uint pricePerToken,uint pricePerToken2,uint pricePerToken3 , bytes32[] candidateNames) public {\r\n  candidateList = candidateNames;\r\n  totalTokens = tokens;\r\n  totalTokens2 = tokens2;\r\n  totalTokens3 = tokens3;\r\n  balanceTokens = tokens;\r\n  balanceTokens2 = tokens2;\r\n  balanceTokens3 = tokens3;\r\n  tokenPrice = pricePerToken;\r\n  tokenPrice2 = pricePerToken2;\r\n  tokenPrice3 = pricePerToken3;\r\n }\r\n\r\n\r\n function buy() payable public returns (uint) {\r\n  uint tokensToBuy = msg.value / tokenPrice;\r\n  require(tokensToBuy <= balanceTokens);\r\n  voterInfo[msg.sender].voterAddress = msg.sender;\r\n  voterInfo[msg.sender].tokensBought += tokensToBuy;\r\n  balanceTokens -= tokensToBuy;\r\n  return tokensToBuy;\r\n }\r\n\r\n\r\n  function buy2() payable public returns (uint) {\r\n  uint tokensToBuy2 = msg.value / tokenPrice2;\r\n  require(tokensToBuy2 <= balanceTokens2);\r\n  voterInfo[msg.sender].voterAddress = msg.sender;\r\n  voterInfo[msg.sender].tokensBought2 += tokensToBuy2;\r\n  balanceTokens2 -= tokensToBuy2;\r\n  return tokensToBuy2;\r\n }\r\n\r\n  function buy3() payable public returns (uint) {\r\n  uint tokensToBuy3 = msg.value / tokenPrice3;\r\n  require(tokensToBuy3 <= balanceTokens3);\r\n  voterInfo[msg.sender].voterAddress = msg.sender;\r\n  voterInfo[msg.sender].tokensBought3 += tokensToBuy3;\r\n  balanceTokens3 -= tokensToBuy3;\r\n  return tokensToBuy3;\r\n }\r\n\r\n\r\n function totalVotesFor(bytes32 candidate) view public returns (uint) {\r\n  return votesReceived[candidate];\r\n }\r\n\r\n function voteForCandidate(bytes32 candidate, uint votesInTokens) public {\r\n  uint index = indexOfCandidate(candidate);\r\n  require(index != uint(-1));\r\n\r\n  if (voterInfo[msg.sender].tokensUsedPerCandidate.length == 0) {\r\n   for(uint i = 0; i < candidateList.length; i++) {\r\n    voterInfo[msg.sender].tokensUsedPerCandidate.push(0);\r\n   }\r\n  }\r\n\r\n  uint availableTokens = voterInfo[msg.sender].tokensBought - totalTokensUsed(voterInfo[msg.sender].tokensUsedPerCandidate);\r\n  require (availableTokens >= votesInTokens);\r\n\r\n  votesReceived[candidate] += votesInTokens;\r\n  voterInfo[msg.sender].tokensUsedPerCandidate[index] += votesInTokens;\r\n }\r\n\r\n function totalTokensUsed(uint[] _tokensUsedPerCandidate) private pure returns (uint) {\r\n  uint totalUsedTokens = 0;\r\n  for(uint i = 0; i < _tokensUsedPerCandidate.length; i++) {\r\n   totalUsedTokens += _tokensUsedPerCandidate[i];\r\n  }\r\n  return totalUsedTokens;\r\n }\r\n\r\n function indexOfCandidate(bytes32 candidate) view public returns (uint) {\r\n  for(uint i = 0; i < candidateList.length; i++) {\r\n   if (candidateList[i] == candidate) {\r\n    return i;\r\n   }\r\n  }\r\n  return uint(-1);\r\n }\r\n\r\n\r\n  function returnbuy() payable public returns (uint) {\r\n  uint tokensToReturn = 1;\r\n  voterInfo[msg.sender].voterAddress = msg.sender;\r\n  voterInfo[msg.sender].tokensBought -= tokensToReturn;\r\n  balanceTokens += tokensToReturn;\r\n  return tokensToReturn;\r\n }\r\n\r\n\r\n function tokensRemaining() view public returns (uint) {\r\n  return  balanceTokens;\r\n }\r\n\r\n  function tokensRemaining2() view public returns (uint) {\r\n  return  balanceTokens2;\r\n }\r\n\r\n  function tokensRemaining3() view public returns (uint) {\r\n  return  balanceTokens3;\r\n }\r\n\r\n\r\n function tokensSold() view public returns (uint) {\r\n  return totalTokens - balanceTokens;\r\n }\r\n\r\n function tokensSold2() view public returns (uint) {\r\n  return totalTokens2 - balanceTokens2;\r\n }\r\n\r\n\r\n function tokensSold3() view public returns (uint) {\r\n  return totalTokens3 - balanceTokens3;\r\n }\r\n\r\n\r\n\r\n function voterDetails(address user) view public returns (uint, uint,uint) {\r\n  return (voterInfo[user].tokensBought, voterInfo[user].tokensBought2,voterInfo[user].tokensBought3);\r\n }\r\n\r\n function transferTo(address account) public {\r\n  account.transfer(address(this).balance);\r\n }\r\n\r\n function allCandidates() view public returns (bytes32[]) {\r\n  return candidateList;\r\n }\r\n}\r\n",
  "sourcePath": "C:\\Users\\zxc12\\ticket-test3\\contracts\\Voting.sol",
  "compiler": {
    "name": "solc",
    "version": "0.4.24+commit.e67f0147.Emscripten.clang"
  },
  "schemaVersion": "2.0.1",
  "updatedAt": "2018-11-22T14:28:57.221Z"
}